:100000000C9451060C9402280C94DB270C9479066E
:100010000C9479060C9479060C9479060C94790664
:100020000C9479060C9479060C9479060C94790654
:100030000C9479060C9479060C9479060C94790644
:100040000C9491270C9479060C945F270C94392713
:100050000C9479060C9479060C9479060C94790624
:100060000C9429280C9479061480180000090212B7
:100070000212021202120212020928090211040FCE
:10008000060D080B0A090C070E05100312011409CE
:100090000212021202120212021202091480180045
:1000A00000090212021202120212021202091401C3
:1000B000120310050E070C090A0B080D060F041198
:1000C0000209280902120212021202120212020985
:1000D00000000000240027002A0000000000250086
:1000E00028002B0000000000230026002900040443
:1000F00004040404040402020202020203030303D0
:1001000003030102040810204080010204081020AB
:100110000102040810200000000800020100000392
:100120000407000000000000000015EF0303800238
:10013000CF0300C130ED0464031281E80385007829
:10014000CB05392C003402F70120EA020000C0017F
:1001500023C10110C5023E28C701863601483A0175
:1001600055B1020018B603088227F20100260101EA
:10017000E00F0F312B0C0E084EF1370710030E095C
:1001800000E10F000E1403110731C148080F0C31B4
:10019000360F11807829000701200300000001FAC2
:1001A00003C000C00528FE28FE28057F8092720C3F
:1001B00006626408102646055CA2520C1201C002B9
:1001C0007E8102817E02C0C00508083E0808010346
:1001D0000508080808080102030638C0047C82826A
:1001E0007C0240FE04468A9262044482926C0418A7
:1001F00068FE0804F4A2A29C047C92924C04808EB7
:10020000B0C0046C92926C046492927C011201134F
:1002100003081422031414140322140804408A90BF
:1002200060083C4299A5B9854438060638C8C838E4
:100230000606FE929292926C067C8282828244062C
:10024000FE828282827C05FE9292928205FE9090CE
:100250009080067C828292945E06FE10101010FE42
:1002600001FE040C0202FC05FE1028448204FE027A
:10027000020208FEC0300C0C30C0FE06FEC0300C7E
:1002800002FE067C828282827C06FE9090909060C4
:10029000067C82828A867D06FE909090906E056430
:1002A0009292924C058080FE808005FC020202FC46
:1002B00005C0380638C007C03806180638C005C65D
:1002C000281028C605C0201E20C005868A92A2C21A
:1002D00002FF8103601C030281FF07304A8680868B
:1002E0004A3005020202020202804004042A2A1E49
:1002F00004FE22221C041C222214041C2222FE04BE
:100300001C2A2A18027E90041925253E04FE10207E
:100310001E01BE0201BF04FE18240201FE073E209A
:10032000203E20201E043E20201E051C2222221CCE
:10033000043F242418041824243F023E2004122AD7
:100340002A24027C22043C02023E043806063805B8
:1003500038061806380336083603310A3C03262AC5
:100360003203083641017F03413608043F02023E52
:100370000015801E00001302130213021302130261
:100380001302130213020C0205020C0205020C09EF
:100390000C090C02130213020F0103020D030302E6
:1003A0000B050302072A04050302050206030302E4
:1003B000050208010A0213021302130213021302B8
:1003C0001302130215801E000213021302130213FC
:1003D00002130213021302130205020C0205020C9F
:1003E000090C09130213021302130206010C020482
:1003F000030C020205052C05020205050205020494
:100400000305020D01050213021302130213021366
:100410000213021317002200FFFFF9FFFFF3FFFF93
:10042000E7FFFFCFFFFF9FFFFF3FFFFE7FFFFCFEC9
:100430006001FCC003F99FFFF33FFFE7FFFFCFFB25
:10044000FF99C7FF320FFE6001FCC003F99067F30C
:1004500038CFE7FD9FCFFF3F99FE7F33FC00600060
:1004600000C003FFFFE7FFFFCFFFFF9FFFFF3FFF3E
:10047000FE7FFFFCFFFFF9FFFFF0170022003FFFA8
:10048000FE7FFFFCFFFFF9FFFFF3FFFFE7FFFFCF5A
:10049000FFFF9FFFFF000CFE0019FFFF33FFFE6709
:1004A000FFFFCFFFBF9FFC733FE0E67F800CFE00A5
:1004B00019FC0733F98E67F3DFCFE7FF9FCFF33FD8
:1004C0009FE67F000C00001800FFFFF9FFFFF3FF1D
:1004D000FFE7FFFFCFFFFF9FFFFF3FFFFE7FFFFC18
:1004E00015001E00FFFFE7FFFF3FFFF9FFFFCFE70B
:1004F000FC7F3FC7F9FC7FCFC7FE7C7FF3C7FF9C23
:100500007FFCC7FFE47FFF07FC007FE003FFFE0FD7
:10051000FFF23BFF989FFCE07FE783FF380FF980F5
:100520007FCF01FE7E0FF3FC3FFFF9FFFFCFFFFE01
:100530007FFFF015001E003FFFF9FFFFCFFFFE7F9A
:10054000FFF1FF3FC7F9FF1FCFFC7E7FF1F3FFC72D
:100550009FFF1CFFFC67FFF13FFFC1FFFF001FFC77
:1005600000FF93FFF09FFE0CFFC067FC073FF039D0
:10057000FF83CFF81E7F8DF3F8FF9FCFFFFE7FFF35
:10058000F3FFFF9FFFFC0F042008000000000000A5
:10059000000000000000000000000370F870FF7011
:1005A000F80700E000FC00E0000000E000FC00E0D4
:1005B0000A00113011C013003D00D13011C01300EA
:1005C0003D00D1001107607830FC108EF8FF1087D5
:1005D000F0C3E06110007E00FF0081108120FF4029
:1005E0007E8001000200040018E027F04F10881000
:1005F00008F00FE0070EE001E003F003307C10FE8E
:10060000908FD08FE0F1E070F004300730062004C6
:1006100040000300E000FC00E005E007F81F0C309C
:100620000240018005018002400C30F81FE00707FE
:100630000060006C00AC00F000AC006C00600900D1
:1006400002000200020002E03F000200020002007D
:100650000203720074003800058000800080008072
:1006600000800003700070007000053000C00100C1
:100670000E0070008008801FE07FF0FF1080108067
:10068000F0FFE07F801F0710201060F07FF07FF008
:10069000FF10001000091000306070C0B0C030E3DF
:1006A00030FE307C30384000086020704030C4108C
:1006B000CE10FFE0F7E073C00108800380058009D9
:1006C0008011F07FF0FFF0FF800108600C707C303B
:1006D000DC30DC10DE10CE20CFC08308C007E01F66
:1006E000F03F3078104CF0CFE087C0830800600006
:1006F000C000C030C0C0C000C700F800C008E07033
:10070000F07910FE108E108FF08FE0FBC071081092
:100710003C107E30FF2083E0C1C0FF807F003E039D
:10072000701C701C701C03721C741C381C0A0004A2
:10073000000A000A000A0011001180208020802099
:1007400040400900090009000900090009000900EA
:1007500009000900090A4040802080208020001103
:100760000011000A000A000A0004080070007070FE
:10077000B07083708400FC00F8007011E007180C62
:1007800004300220E241F147F18F119E6190F18F18
:10079000F19F119F12502260C430081F10000D10ED
:1007A00000100070009003800C803080FC907FF07F
:1007B0001FF003F000300010000C10801080F0FFDC
:1007C000F0FFF0FF10841084108430CEF0FFE07B47
:1007D000C0310C800FC03FE07F706030C0108010CF
:1007E00080108010801040206040F00D108010803C
:1007F000F0FFF0FFF0FF10801080108030C06060CC
:10080000E07FC03F800F0C10801080F0FFF0FFF001
:10081000FF10841084109F108010C030E0F0000B97
:1008200010801080F0FFF0FFF0FF10841084009F14
:10083000008000C000E00E800FC03FE07F6070309D
:10084000C01080108010811081F041E061E0F10063
:100850000100010E10801080F0FFF0FFF0FF108407
:10086000000400041084F0FFF0FFF0FF10801080FF
:100870000710801080F0FFF0FFF0FF108010800A5A
:10088000E000E000D00010801080F0FFE0FFC0FF2B
:10089000008000800E10801080F0FFF0FFF0FF104D
:1008A000841086800FD013F0A170A030C01080108B
:1008B000800B10801080F0FFF0FFF0FF10801080A0
:1008C000100010003000F0001210801080F0FF10B7
:1008D000C010F000FE803FE00FF001C001000610E4
:1008E0003810C0F0FFF0FFF0FF108010800E1000F5
:1008F0001080F0FF10F01078003C001E000F800701
:10090000C083E081F0FF008000800D000FC03FE059
:100910007F606030C010801080108030C06060E068
:100920007FC03F000F0B10801080F0FFF0FFF0FF42
:100930001082108200C600FE007C00380D800FC0BF
:100940003FE07F706030C018801C801E8036C0720F
:1009500060E27FC23F800F0E10801080F0FFF0FF3A
:10096000F0FF108210838083C0C7E0FC707C3038B9
:100970001000100009F039607C20FC108E108610E9
:1009800087F043E0F3C0010B00E00080108010808E
:10099000F0FFF0FFF0FF10801080008000E00D00FD
:1009A000800080C0FFE0FFF0FF308010801000105A
:1009B000802080C0FF008000800D008000C000F01B
:1009C00000FC80BFE08FF00360008003008C00B06B
:1009D00000C0008013008000C000F000FC00BFE0F9
:1009E0008FF003E080008300EC00F800FFE09FF050
:1009F00003E0000007009800E000800D10801080E8
:100A000030C050F090F800BF000FD00FF091F0A070
:100A100030C0108010800D008000C000F010F81071
:100A2000BEF08FF007F0031004109800A000C00083
:100A3000800C100030F0F0C0F081D087108F10BE15
:100A400010F810F010C03080F00004FFFFFFFF012D
:100A50008001800500C000380007E000100004019C
:100A6000800180FFFFFFFF09000400180020004004
:100A7000008000400020001800040A01000100016D
:100A8000000100010001000100010001000100035C
:100A9000D00A00C0006009600EF00EF01690112020
:100AA00011F01FF01FF00F1000090080F0FFE0FFB1
:100AB000E0FF10081010F01FE00FC00707C007E0AC
:100AC0000FF01F30101010101C200C09C007E00F91
:100AD000F01F10102088F0FFF0FFE0FF200007C09B
:100AE00007E00FF01F3012101E100E200607101026
:100AF000F07FF0FFF0FF109000C000C009360779CA
:100B00000FB91FB910B910B91F391F3A161C100AB6
:100B10001080F0FFF0FFF0FF10080010F01FF01F32
:100B2000F00F1000051010F0DFF0DFF0DF1000060E
:100B3000060007000110FFDFFFDFFEDF0B1080F073
:100B4000FFF0FFF0FF10018003D013F01C7018308D
:100B5000101000051080F0FFF0FFF0FF10000F10E4
:100B600010F01FF01FF01F10080010F01FF01FF012
:100B70000F10080010F01FF01FF00F10000A1010E7
:100B8000F01FF01FF01F10080010F01FF01FF00FF3
:100B9000100008C007E00FF01F10101010F01FE049
:100BA0000FC007090110FF1FFF1FFF1F21081010B2
:100BB000F01FE00FC00709C007E00FF01F10102161
:100BC00010FF1FFF0FFF1F0100081010F01FF01F84
:100BD000F01F10080010001C001C06700E201F9053
:100BE00017D013F009E01C060010E01FF03FF0FFE3
:100BF000101020100A0010E01FF01FF01F1000203E
:100C000010F01FF01FF01F1000090010001C801FC3
:100C1000E01FF01360008013001C00100E00100095
:100C20001C001FE01FF013E0000017001EE01FF083
:100C300017E0000017001800100910101010301CE9
:100C4000501FC01FF003F0143018101009061007D1
:100C500018071E821FEC17F0018013001C001008FB
:100C60001000701CF010F013901F101F301C70103B
:100C70000500018C32FE7E73CC018001FFFF05016F
:100C80008073CCFE7E8C3200010A0010FF1FFF1F14
:100C9000F01F10002010F01FF01FF01F10000000C8
:100CA000482911241FBECFEFD8E0DEBFCDBF13E02F
:100CB000A0E0B1E0E2E6F5E702C005900D92A634AF
:100CC000B107D9F726E0A6E4B3E001C01D92A33C2A
:100CD000B207E1F716E0C1E5D6E004C02197FE01B6
:100CE0000E947239C035D107C9F70E948B290C9434
:100CF000AF3A0C9400008CBD9DBD089508950895F1
:100D00008230910538F0880F991F880F991F059739
:100D10000197F1F70895AF92BF92CF92DF92EF92D1
:100D2000FF920F931F93CF93DF936C017B018B0195
:100D3000040F151FEB015E01AE18BF08C017D107E5
:100D400059F06991D601ED91FC910190F081E02D6F
:100D5000C6010995892B79F7C501DF91CF911F91C4
:100D60000F91FF90EF90DF90CF90BF90AF900895DC
:100D7000FC01538D448D252F30E0842F90E0821BA1
:100D8000930B541710F0CF96089501970895FC0126
:100D9000918D828D981761F0A28DAE0FBF2FB11D7E
:100DA0005D968C91928D9F5F9F73928F90E00895D6
:100DB0008FEF9FEF0895FC01918D828D981731F090
:100DC000828DE80FF11D858D90E008958FEF9FEFE4
:100DD0000895FC01918D228D892F90E0805C9F4FBA
:100DE000821B91098F73992708958EE096E00E94E7
:100DF000E90621E0892B09F420E0822F089580E0A4
:100E000090E0892B29F00E94F50681110C940000D6
:100E10000895FC01A48DA80FB92FB11DA35ABF4F8F
:100E20002C91848D90E001968F739927848FA689E9
:100E3000B7892C93A089B1898C91837080648C933D
:100E4000938D848D981306C00288F389E02D8081EC
:100E50008F7D80830895EF92FF920F931F93CF931E
:100E6000DF93EC0181E0888F9B8D8C8D98131AC0E5
:100E7000E889F989808185FF15C09FB7F894EE89CC
:100E8000FF896083E889F989808183708064808329
:100E90009FBF81E090E0DF91CF911F910F91FF9074
:100EA000EF900895F62E0B8D10E00F5F1F4F0F731C
:100EB0001127E02E8C8D8E110CC00FB607FCFACFD7
:100EC000E889F989808185FFF5CFCE010E94090765
:100ED000F1CFEB8DEC0FFD2FF11DE35AFF4FF082A8
:100EE0009FB7F8940B8FEA89FB8980818062CFCF0E
:100EF000CF93DF93EC01888D8823B9F0AA89BB8951
:100F0000E889F9898C9185FD03C0808186FD0DC03B
:100F10000FB607FCF7CF8C9185FFF2CF808185FF5C
:100F2000EDCFCE010E940907E9CFDF91CF9108955F
:100F3000833081F028F4813099F08230A9F008954F
:100F40008730A9F08830C9F08430B1F480918000F6
:100F50008F7D03C0809180008F77809380000895FB
:100F600084B58F7784BD089584B58F7DFBCF809144
:100F7000B0008F778093B00008958091B0008F7D8E
:100F8000F9CFCF93DF93282F30E0F901EA5EFE4FCF
:100F90008491F901EE5FFE4FD491F901E251FF4FC8
:100FA000C491CC23A1F081110E949807EC2FF0E0AE
:100FB000EE0FFF1FEC51FF4FA591B491EC91ED2383
:100FC00081E090E009F480E0DF91CF91089580E026
:100FD00090E0FACF1F93CF93DF93282F30E0F901F1
:100FE000EA5EFE4F8491F901EE5FFE4FD491F90164
:100FF000E251FF4FC491CC23A9F0162F81110E941A
:101000009807EC2FF0E0EE0FFF1FE652FF4FA5917F
:10101000B4918FB7F894EC91111108C0D095DE23EC
:10102000DC938FBFDF91CF911F910895DE2BF8CF16
:10103000CF93DF9390E0FC01EE5FFE4F249182514D
:101040009F4FFC0184918823D1F090E0880F991F75
:10105000FC01E053FF4FA591B491FC01E652FF4F14
:10106000C591D491623071F49FB7F8943C91822F6E
:10107000809583238C93E8812E2B28839FBFDF915B
:10108000CF9108958FB7F894EC912E2B2C938FBFAE
:10109000F6CF3FB7F89480915B0590915C05A091E5
:1010A0005D05B0915E0526B5A89B05C02F3F19F0E0
:1010B0000196A11DB11D3FBFBA2FA92F982F8827D8
:1010C000BC01CD01620F711D811D911D42E0660FB3
:1010D000771F881F991F4A95D1F708958F929F9285
:1010E000AF92BF92CF92DF92EF92FF926B017C01A1
:1010F0000E9449084B015C01C114D104E104F104D0
:10110000B9F00E944908681979098A099B09683E63
:1011100073408105910580F321E0C21AD108E108EE
:10112000F10888EE880E83E0981EA11CB11CE4CF64
:10113000FF90EF90DF90CF90BF90AF909F908F90F7
:101140000895089520913305260F3327331F213248
:101150003105ECF42091E405FC0190E080E02430BE
:1011600069F082E00895A09133052191AC014D5EB4
:101170005A4FA40FB52FB11D2C930196861798F3E3
:1011800080913305680F6093330580E0089581E016
:1011900008951092E40581E08093E3051092BE0566
:1011A00061E082E10E94EA0761E083E10E94EA07D0
:1011B000E9EBF0E080818E7F808380818D7F80836A
:1011C00088E48093B80085E48093BC000895109271
:1011D000B6051092B5051092EB0510920D060E940F
:1011E000C9088EE796E09093B4058093B3058FE726
:1011F00096E09093B2058093B1050895CF93DF9365
:1012000091E0909312058823B9F0C091B800D09175
:10121000BA008091BC008A7B8093BC0060E082E1D0
:101220000E94EA0760E083E10E94EA070E94C90881
:10123000D093BA00C093B800DF91CF9108958F92F8
:101240009F92AF92BF92CF92DF92EF92FF920F9355
:101250001F93CF93DF93D0910D06D13208F0D7C002
:10126000182FC0910C060E9449086B017C018091E7
:10127000E40581116BC082E08093E4051093E305DF
:101280008FEF8093E2051092E105D093E005ACEE7C
:10129000B5E0E0ECF5E080E0D81391C01092BF0516
:1012A0008091BF05CC0FC82BC093BF058091BE05B0
:1012B000813009F088C01092BE050E9449086B0178
:1012C0007C018091BF058093BB008091E6059091E1
:1012D000E705A091E805B091E905892B8A2B8B2BB6
:1012E000A1F00E9449080091E6051091E7052091C0
:1012F000E8053091E9056C197D098E099F090617EB
:1013000017072807390708F442C08091BC0083FD05
:10131000D8CF85EC8093BC000E9449086B017C010A
:101320008091E405823009F450C08091E2058F3F3E
:1013300009F46FC08091E205803209F46CC080919D
:10134000E205803309F469C084E026C08091E60597
:101350009091E705A091E805B091E905892B8A2BCA
:101360008B2B09F484CF0E9449088090E605909069
:10137000E705A090E805B090E9056C197D098E0994
:101380009F0986169706A806B90608F070CF8091C7
:10139000E5050E94FE0885E01092EB0510920D060F
:1013A0001092EA05DF91CF911F910F91FF90EF907E
:1013B000DF90CF90BF90AF909F908F9008959D91B8
:1013C00091938F5F69CF85EEA5CF8091E6059091CF
:1013D000E705A091E805B091E905892B8A2B8B2BB5
:1013E00009F49ECF0E9449080091E6051091E70597
:1013F0002091E8053091E9056C197D098E099F0956
:10140000061717072807390708F08ACFC0CF81E0F1
:10141000C3CF80E0C1CF82E0BFCF83E0BDCFCF9309
:10142000DF93EC018B818823A1F0888191E0909378
:10143000EA0580930C061092EB0510920D0681E0F0
:101440000E941F0991E0811190E0892FDF91CF91D7
:1014500008950E94E70881E08B83CE010E940F0A65
:10146000982F8111E2CFF1CF0895E091B6058091D8
:10147000B505E81730F4F0E0EE50FB4F808190E0C6
:1014800008958FEF9FEF08959091B6058091B5056F
:101490002FEF3FEF981748F4E92FF0E0EE50FB4FA5
:1014A000208130E09F5F9093B605C9010895809137
:1014B000B5059091B605891B990B0895CF92DF92DF
:1014C000EF92FF920F931F93CF93DF937C01CB0199
:1014D0008A012091EA05222389F0EB016B01C40EF9
:1014E000D51ECC15DD0569F06991D701ED91FC9110
:1014F0000190F081E02DC7010995F3CF642F0E9480
:10150000A208C801DF91CF911F910F91FF90EF903A
:10151000DF90CF900895CF93DF931F92CDB7DEB7C2
:1015200069832091EA052223F9F020910D062032EB
:1015300058F021E030E0FC013383228390E080E02A
:101540000F90DF91CF9108958091EB05E82FF0E0A7
:10155000E451FA4F998190838F5F8093EB058093DC
:101560000D0681E090E0ECCF61E0CE0101960E9493
:10157000A208F7CF90E080E00895CF93CFB7F8941A
:101580008091F104811127C0E8EFF0E08491ECE054
:10159000F1E09491E82FF0E0EE0FFF1FE053FF4FD2
:1015A000A591B491EC91E92321F461E08AE00E94D5
:1015B000EA0761E08AE00E9418088CB580618CBD62
:1015C0008CB580648CBD61E08DE00E94180861E0FC
:1015D0008BE00E9418088091F1048F5F8093F104E2
:1015E000CFBFCF91089560E0809107010E94EA0784
:1015F00060E0809108010E94EA078AE28EBD0096B1
:101600000096009601D001C0089561E08091070125
:101610000E94EA071EBC00000096009601D001C09F
:10162000089510926505109264051EBC0000009696
:1016300001D001C008958091240190912501019766
:1016400090936305809362059EBD00960096009678
:1016500001D001C00895809162058EBD0000009602
:10166000009601D001C0089560E0809107010E94BA
:10167000EA078BE28EBD00960096009601D001C06D
:10168000089561E0809107010E94EA071EBC0000F6
:101690000096009601D001C008951092670510923F
:1016A00066051EBC0000009601D001C0089580911F
:1016B0002601909127010197909361058093600521
:1016C0009EBD00960096009601D001C008958091BD
:1016D00060058EBD00000096009601D001C00895FF
:1016E00061E0809108010C94EA079CB520915F05A8
:1016F0002CBD8EBD00000DB407FEFDCF9CBD08952E
:101700000CB405FC0DC09EBD00000DB407FEFDCF5E
:101710009EB58EBD00000DB407FEFDCF8EB50895B9
:101720008EBD00000DB407FEFDCF8EB59EBD00003E
:101730000DB407FEFDCF9EB508958EBD00000DB41B
:1017400007FEFDCF8EB50895EF92FF920F931F9382
:10175000CF93DF938C0187EBE82E86E0F82E60E0D4
:10176000F70180810E94EA07F701C281D381D0612D
:101770001F70C02BD12B8D2F0E949D0B8C2F0E9490
:101780009D0B61E0F7018081DF91CF911F910F9157
:10179000FF90EF900C94EA07EF92FF920F931F9344
:1017A000CF93DF938C0187EBE82E86E0F82E60E084
:1017B000F70180810E94EA07F701C481D581D069D1
:1017C0001F70C02BD12B8D2F0E949D0B8C2F0E9440
:1017D0009D0B61E0F7018081DF91CF911F910F9107
:1017E000FF90EF900C94EA071F93CF93DF939091B3
:1017F000BB059923B1F1C82F81E591E00E947B06DA
:1018000060E08091B7050E94EA0728E0C29FC0010E
:101810001124806C0E949D0BD82F80E00E949D0BAC
:10182000C82F80E00E949D0B182F61E08091B705C2
:101830000E94EA0728E0C29FC00111241295169564
:101840001770812B2D2F30E0322F2227330F330FCB
:10185000330F22273870822B932BDF91CF911F916A
:101860000895FBCFCF93DF93D82F60E080910701DD
:101870000E94EA07C091080160E08C2F0E94EA07ED
:1018800080916905882349F08D2F0E94750B61E0D6
:101890008C2FDF91CF910C94EA078D2F0E949D0B26
:1018A000F6CFCF93DF93D82F61E0809107010E949C
:1018B000EA07C091080160E08C2F0E94EA0780913E
:1018C0006905882349F08D2F0E94750B61E08C2FEC
:1018D000DF91CF910C94EA078D2F0E949D0BF6CFDC
:1018E000AF92BF92CF92DF92EF92FF920F931F932E
:1018F000CF93DF93B82EA92ED62EC72E8A01E901E9
:10190000E0900801F090070180916905882309F4AF
:1019100099C060E08F2D0E94EA0760E08E2D0E9442
:10192000EA078AE28EBD00960096009601D001C0BB
:10193000089561E0809107010E94EA07AEBC0000B3
:10194000009601D001C008958FEF9FEF9093650539
:1019500080936405BEBC0000009601D001C00895CC
:1019600080916205909163058017910791F01EBDEB
:101970000000009601D001C0089500001093630597
:10198000009362050EBD00000096009601D001C0D4
:10199000089560E0809107010E94EA078BE28EBD06
:1019A00000960096009601D001C0089561E08091F4
:1019B00007010E94EA07CEBC0000009601D001C0DA
:1019C00008958FEF9FEF9093670580936605DEBCC7
:1019D0000000009601D001C00895809160059091AB
:1019E00061058C179D0791F0DEBD0000009601D0C7
:1019F00001C008950000D0936105C0936005CEBD7D
:101A000000000096009601D001C0089560E080912A
:101A100007010E94EA078CE28EBD00000096009646
:101A200001D001C0089561E080910701DF91CF915D
:101A30001F910F91FF90EF90DF90CF90BF90AF90EC
:101A40000C94EA078AE20E94320C8A2D0E94510C03
:101A50008B2D0E94510C812F0E94510C802F0E94CF
:101A6000510C8BE20E94320C8C2D0E94510C8D2D5A
:101A70000E94510C8D2F0E94510C8C2F0E94510CF2
:101A80008CE20E94320C60E08E2D0E94EA0761E039
:101A90008F2DCCCFCF92DF92EF92FF920F931F93B7
:101AA000CF93DF936A01E90121503109260F371FD7
:101AB00041505109480F591F0E94700C219708F19D
:101AC000760180916905882391F0C601009771F035
:101AD0001EBD02D001D001C0089500000EBD0096C9
:101AE000009601D001C00895019791F7E7CF1E1429
:101AF0001F0424F7C8010E94800B81E0E81AF10856
:101B0000F6CF61E080910801DF91CF911F910F9195
:101B1000FF90EF90DF90CF900C94EA070F931F9304
:101B200020912601309127014091240150912501F7
:101B300010E000E070E060E090E080E00E944A0D7C
:101B40001F910F910895EF92FF920F931F93CF93E0
:101B5000DF93EA01122F032F41505109480F591FFB
:101B60009B010E94700C7E01809169058823D9F049
:101B7000209771F00EBD02D001D001C00895000081
:101B80001EBD0096009601D001C00895219791F7DF
:101B900061E080910801DF91CF911F910F91FF903B
:101BA000EF900C94EA071E141F0494F7812F902FD6
:101BB0000E94800B81E0E81AF108F5CF2F923F9246
:101BC0004F925F926F927F928F929F92AF92BF924D
:101BD000CF92DF92EF92FF920F931F93CF93DF93F9
:101BE000CDB7DEB76E970FB6F894DEBF0FBECDBF90
:101BF0009C8B8B8B78876F835A8349833E8F2D8F85
:101C00001A870987449F9001459F300D300D11249C
:101C10003C832B838D8D9E8D889FA001899F500DC5
:101C2000500D11245E834D83032E000C440B550B85
:101C30002B873C874D875E8772E0220F331F441F3E
:101C4000551F7A95D1F72F87388B498B5A8B4D8149
:101C50005E812A01052E000C66087708D301C201B7
:101C6000E2E0880F991FAA1FBB1FEA95D1F78D8B61
:101C70009E8BAF8BB88F8D8D9E8D880F991F21E025
:101C800030E0281B390BAB81BC810E942A399301BB
:101C90008201000F111F221F331F6B017C01C00E38
:101CA000D11EE21EF31E2B883C8826E030E0DA01CC
:101CB0000E944139698F7A8F8B8F9C8F01E010E0F1
:101CC000812C912C54012B813C81AD8DBE8D0E94C5
:101CD0002A39681579058A059B050CF44AC02985BF
:101CE0003A85A8016F8178856A1B7B0BC1010E9430
:101CF000A30D29853A85A8016F817885AD8DBE8DAC
:101D00006A0F7B1FC1010E94A30DF7FC13C0A1E065
:101D1000B0E0ED8DFE8DAE1BBF0B2F853889498954
:101D20005A890E944839C60ED71EE81EF91E3197FF
:101D3000FE8FED8FD501C40162E0880F991FAA1FA5
:101D4000BB1F6A95D1F7298D3A8D4B8D5C8D820F23
:101D5000931FA41FB51FC80ED91EEA1EFB1E840CBC
:101D6000951CA61CB71C31E0231A31080E5F1F4FCB
:101D7000AACF89819A81880F991F21E030E0281B22
:101D8000390BAD81BE810E942A390B851C852D85BA
:101D90003E85000F111F221F331F6B017C01C00EF7
:101DA000D11EE21EF31E26E030E0AB81BC810E9412
:101DB00041394B015C01412C512C3201312C212C39
:101DC0002D813E81A981BA810E942A396415750549
:101DD000860597050CF451C08D01000F111F0F5F90
:101DE0001F4F29853A85A8016F817885621973098B
:101DF0008B899C898A1B9B0B9C838B830E94A30DE0
:101E000029853A85A8016F817885620D731D8B81C4
:101E10009C810E94A30DF7FC13C0A1E0B0E0E98112
:101E2000FA81AE1BBF0B2D893E894F89588D0E94C8
:101E30004839C60ED71EE81EF91E3197FA83E9838A
:101E4000D301C20122E0880F991FAA1FBB1F2A9548
:101E5000D1F7880D991DAA1DBB1DC80ED91EEA1EFB
:101E6000FB1EFFEF2F1A3F0A2B853C854D855E85B3
:101E7000420E531E641E751EA3CF6E960FB6F894C5
:101E8000DEBF0FBECDBFDF91CF911F910F91FF90AD
:101E9000EF90DF90CF90BF90AF909F908F907F900A
:101EA0006F905F904F903F902F900895EF92FF9228
:101EB0000F931F93CF93DF9320912401309125013D
:101EC0008217930708F0BCC02091260130912701AA
:101ED0006217730708F0B4C08A017B01EC0160E06F
:101EE000809108010E94EA0780916905882309F41E
:101EF0009DC08091640590916505C817D90709F4C4
:101F00002DC060E0809107010E94EA078AE28EBD41
:101F10000000009601D001C00895D0936505C093DC
:101F2000640561E0809107010E94EA07DEBD02D0EE
:101F300001D001C008950000CEBD02D001D001C083
:101F400008950000DEBD02D001D001C00895000058
:101F5000CEBD0000009601D001C0089580916605B5
:101F600090916705E816F90609F42EC060E08091AB
:101F700007010E94EA078BE28EBD0000009601D0A7
:101F800001C00895F0926705E092660561E08091D6
:101F900007010E94EA07FEBC02D001D001C00895EB
:101FA0000000EEBC02D001D001C008950000FEBCCC
:101FB00002D001D001C008950000EEBC00000096E0
:101FC000009601D001C0089560E0809107010E9451
:101FD000EA078CE28EBD00960096009601D001C003
:101FE000089561E0809107010E94EA071EBD0096F6
:101FF0000096009601D001C00895D0936305C09368
:1020000062050EBD0000009601D001C00895F09257
:102010006105E092600561E080910801DF91CF9158
:102020001F910F91FF90EF900C94EA079701AE017A
:10203000B701CE010E94700CC8010E94800BEBCF4B
:10204000DF91CF911F910F91FF90EF9008953F92F4
:102050004F925F926F927F928F929F92AF92BF92B8
:10206000CF92DF92EF92FF920F931F93CF93DF9364
:102070005A01FB0134903196E4903196949189177E
:1020800008F46FC0319633E08917C1F02491222300
:1020900009F467C0622F70E031964FE0431530F4C9
:1020A000239FE00DF11D11248150EECF27E0231571
:1020B00010F4660F771FE60FF71FF6CF049110E0BC
:1020C000BF016F5F7F4F832C912CF12C01151105FF
:1020D00009F43EC0FB014490512C712C612CEB01A2
:1020E0002196F7E0F31568F4FE01C4915C2AEB0138
:1020F0002296FFE0F31528F4FE01C4916C2AEB014F
:102100002396D12CC12C8091AF059091B0058C14F1
:102110009D04A8F040FE0BC06091AD057091AE0526
:102120006E0D7F1D6C197D09A5010E94560F7694D6
:10213000679457944794FFEFCF1ADF0AE4CF0196D4
:102140009093B0058093AF0501501109BE01BECF39
:102150008091AF059091B00501969093B005809362
:10216000AF05DF91CF911F910F91FF90EF90DF901E
:10217000CF90BF90AF909F908F907F906F905F9027
:102180004F903F9008958F929F92AF92BF92CF92BF
:10219000DF92EF92FF920F931F93CF93DF93EC01A7
:1021A0007B016A0197FF3AC0D195C195D1098DE2B3
:1021B0000E94271085E0882E912C00E117E220E094
:1021C0009AE0A92EB12CC017D10714F4222359F09C
:1021D000CE01B8010E94F738862FA601B701805DB5
:1021E0000E94271021E0CE01B8010E94F738EC01CF
:1021F000C801B5010E94F7388B0181E0881A910867
:1022000011F7DF91CF911F910F91FF90EF90DF9029
:10221000CF90BF90AF909F908F900895892B51F6EB
:1022200080E3DF91CF911F910F91FF90EF90DF90AE
:10223000CF90BF90AF909F908F900C942710EF920B
:10224000FF920F931F93CF93DF938B017A01EC01E1
:102250008991882329F0A701B8010E942710F8CF9F
:10226000DF91CF911F910F91FF90EF9008952F92E2
:102270003F924F925F926F927F928F929F92AF9216
:10228000BF92CF92DF92EF92FF920F931F93CF9363
:10229000DF9300D000D0CDB7DEB77A0118016C0112
:1022A000C41AD50A4817590718F06A01C81AD90A7A
:1022B0002617370768F45B01A21AB30ACA14DB04B5
:1022C0004CF1E816F90608F442C0712C612C19C0D3
:1022D0005901A61AB70ACA14DB040CF044C05C2DDD
:1022E0004D2D6501A52EB42E5E2D4F2D7901252F84
:1022F000342F582F492FCB01652F742F66246394F8
:10230000712C46019594879462177307D8F521E0E4
:1023100030E03AC05C2D4D2D6501A52EB42E562F10
:10232000472FB701E52EF42E582F492FC901252F2D
:10233000342FE4CFA101B2018B819C81611471041F
:1023400019F06B817C81C2010E94560F38C0460192
:1023500095948794B901382F292FC701E32EF22EC7
:10236000712C612CD4CFE816F90608F0AECF4601E7
:1023700095948794B901382F292FC701E32EF22EA7
:10238000712C612C2FEF3FEF3A8329832B019C8323
:102390008B838B819C81E816F906F8F0409123012C
:1023A000423040F24150550B81019A01B201611453
:1023B000710419F06B817C81C2010E94DE0D8A18C4
:1023C0009B0897FE06C029813A81420E531E8C0C51
:1023D0009D1C8B819C810196DACF0F900F900F90FE
:1023E0000F90DF91CF911F910F91FF90EF90DF90B1
:1023F000CF90BF90AF909F908F907F906F905F90A5
:102400004F903F902F900895EF92FF920F931F935C
:10241000CF93DF937C01EB0182E08093230110E0F6
:1024200000E09B0142E350E0B7018CE190E00E94A4
:102430003711970142E350E0BE018CE190E00E9429
:10244000371181E080932301DF91CF911F910F918C
:10245000FF90EF9008950F931F93E0912301E230D6
:1024600058F0890141505109480F591F9B010E94A2
:1024700037111F910F9108951F910F910C94A30D87
:10248000EF92FF920F931F93CF93DF93EA0189019D
:102490009A0121503109260F371F40912301423004
:1024A00050F0AC010E943711DF91CF911F910F9135
:1024B000FF90EF900895AC010E94700C7E01809116
:1024C00069058823D9F0209771F01EBD02D001D094
:1024D00001C0089500000EBD0096009601D001C015
:1024E0000895219791F761E080910801DF91CF91E4
:1024F0001F910F91FF90EF900C94EA071E141F0498
:1025000094F7C8010E94800B81E0E81AF108F6CF29
:10251000AF92BF92CF92DF92EF92FF920F931F93F1
:10252000CF93DF937C016B01EA01590198010E946E
:102530002B12B501615071096C0D7D1D9801AE0122
:10254000C7010E942B129801A501B601C7010E9484
:102550004012CE0101979801A501B6018E0D9F1D75
:10256000DF91CF911F910F91FF90EF90DF90CF906F
:10257000BF90AF900C944012AF92BF92CF92DF9277
:10258000FF920F931F93CF93DF93EC01F62E6A0116
:10259000590100E114E822E230E042E250E061E05B
:1025A00070E00E944A0D0FEF1FEF22E230E042E29E
:1025B00050E061E070E0CE010E94881285012EE1BA
:1025C00030E04EE150E063E070E0CE0102960E9400
:1025D0004A0D2B96D093B005C093AF0587E190E0EC
:1025E0009093AE058093AD05A60166E875E08F2D4A
:1025F000DF91CF911F910F91FF90DF90CF90BF900F
:10260000AF900C942710EF92FF920F931F93CF93EC
:10261000DF9320916905222309F495C020912401BC
:10262000309125018217930708F095C0209126016B
:10263000309127016217730708F08DC07A018B0172
:10264000EC0160E0809108010E94EA078091640536
:1026500090916505C817D90711F160E080910701D5
:102660000E94EA078AE28EBD00000096009601D023
:1026700001C00895D0936505C093640561E0809121
:1026800007010E94EA07DEBD02D001D001C0089513
:102690000000CEBD0000009601D001C008958091D9
:1026A0006605909167050817190719F160E0809198
:1026B00007010E94EA078BE28EBD0000009600969B
:1026C00001D001C00895109367050093660561E08D
:1026D000809107010E94EA071EBD02D001D001C00F
:1026E000089500000EBD00000096009601D001C0C4
:1026F000089560E0809107010E94EA078CE28EBD98
:1027000000960096009601D001C0089561E0809186
:1027100007010E94EA07FEBC02D001D001C0089563
:102720000000EEBC00000096009601D001C00895A4
:1027300061E080910801DF91CF911F910F91FF908F
:10274000EF900C94EA07DF91CF911F910F91FF90CA
:10275000EF900C94560FDF91CF911F910F91FF9046
:10276000EF9008952F923F924F925F926F927F92D7
:102770008F929F92AF92BF92CF92DF92EF92FF9291
:102780000F931F93CF93DF9300D000D0CDB7DEB768
:102790004C015B011901FA0184919A012F5F3F4FAF
:1027A000F90174913A01F2E06F0E711C8A010C5F1D
:1027B0001F4FCA01039660916905FA0177FF4BC06C
:1027C000449150E0F9012491522B9A013F773A83CA
:1027D0002983F3016490712CFC018491782A6111A2
:1027E0000E94F30A7501552453941C821B824424D1
:1027F0004394C7018A199B09861597050CF07AC086
:10280000D12CC12C29813A812C153D0501F1F8010B
:102810008F014B815C81452B41F45491852F90E0D1
:102820009C838B8354243196F3CF511007C0A101B0
:10283000B701C601880D991D0E940313EB81FC812D
:102840003197FC83EB83FFEFCF1ADF0ADBCF2FEF4B
:10285000E21AF20ACECFF4914F2F50E0F901249101
:10286000522B5C834B83F3016490712CFC018491A7
:102870009301382B3A83298361110E94F30A650181
:10288000712C612CC6018A199B0949815A818417D0
:10289000950784F5F12CE12C8B819C81E816F906D3
:1028A000ECF4C3018E0D9F1D87709927892B39F495
:1028B000C8010196F8010491402E512C8C0147FC6F
:1028C00007C0A101B601C4018E0D9F1D0E94031314
:1028D000440C551CFFEFEF1AFF0ADECF8B819C8161
:1028E00097FF02C090E080E0680E791E2FEFC21AB9
:1028F000D20AC8CF0F900F900F900F90DF91CF9119
:102900001F910F91FF90EF90DF90CF90BF90AF900D
:102910009F908F907F906F905F904F903F902F90FF
:1029200008957F928F929F92AF92BF92CF92DF9243
:10293000EF92FF920F931F93CF93DF93EC015B0114
:10294000742E490168010FEF1FEF2FE430E04FE4D0
:1029500050E0BC0190E080E00E948812BE016E5FF2
:102960007F4F84012BE430E04BE450E082E090E0C4
:102970000E944A0DBE016F5F7F4F10E000E02DE422
:1029800030E04DE450E081E090E00E94881282E067
:10299000809323014E0182E3880E911C27E130E0F1
:1029A00047E150E0B4018CE190E00E94881281E0A0
:1029B00080932301BE016C5C7F4F0FEF1FEF23E17B
:1029C00030E043E150E08EE190E00E944A0D772034
:1029D00031F0BE01685B7F4FC4010E94041283E0A6
:1029E00090E0C035D10511F08BE090E09093B005F8
:1029F0008093AF05CE0142969093AE058093AD05CE
:102A000050E040E066E875E0C5010E941F1166963F
:102A100030E020E0A601BE0188E090E00E94B21301
:102A200030E020E0A701BE018FE290E0DF91CF917E
:102A30001F910F91FF90EF90DF90CF90BF90AF90DC
:102A40009F908F907F900C94B213CF92DF92EF9271
:102A5000FF920F931F93CF93DF93E80100918E05B0
:102A600010918F050E944A0D409118015091190153
:102A7000D093B005C093AF05F092AE05E092AD05DE
:102A800066E875E0C601DF91CF911F910F91FF902D
:102A9000EF90DF90CF900C94C310EF92FF920F93C2
:102AA0001F93CF93DF937C0181E1869FE001879F95
:102AB000D00D11248A0122E130E043E150E068E2C8
:102AC00070E0CE018A579F4F0E944A0D8CE3E816B2
:102AD000F104C9F0C957DF4FD093B005C093AF05DB
:102AE00084E390E09093AE058093AD054FEF5FEFE8
:102AF00066E875E08E2DDF91CF911F910F91FF90C9
:102B0000EF900C942710DF91CF911F910F91FF90C0
:102B1000EF9008950F931F93A62F282F30E0F9010F
:102B2000EE0FFF1FEF58FE4F8081918190931501AA
:102B300080931401F901EE0FFF1FEB57FE4F6081E8
:102B400071817093170160931601F901EE0FFF1F59
:102B5000E756FE4F4081518150931101409310017F
:102B6000220F331FF901E35AFE4F20813181309348
:102B70001301209312010FEF17E0A13041F000E0A4
:102B800018EFA23021F0A33021F400EE1FEF0E94D5
:102B900088121F910F9108952F923F924F925F924A
:102BA0006F927F928F929F92AF92BF92CF92DF925D
:102BB000EF92FF920F931F93CF93DF93CDB7DEB7C2
:102BC00065970FB6F894DEBF0FBECDBF8983782E10
:102BD0002CEF720E843009F008C120901E01309055
:102BE0001F0126E930E03D8B2C8B60E00E948A15A6
:102BF000A0901201B0901301C50104979B838A83B2
:102C000020911001309111013D832C832F5F3F4FA4
:102C10003D872C87E0901601F0901701470132E0C4
:102C2000830E911C4090140150901501C2018997A8
:102C30009F878E8710E000E02A813B814C855D856F
:102C4000B4010E944A0D272D770C330B398B288B4A
:102C5000F901EE0FFF1FE355FE4F8081918197012F
:102C6000225F3F4F3B8B2A8B28E530E03093B00545
:102C70002093AF052A893B893093AE052093AD059B
:102C80004FEF5FEF66E875E00E941F115092F0046D
:102C90004092EF04F092EE04E092ED046C807D80AF
:102CA00034E0631A71087092EC046092EB0483E0E4
:102CB000A81AB108B092EA04A092E9049701205F33
:102CC0003F4F3F832E83C2010596998788879201E3
:102CD0002F5F3F4F3B872A87C0908C05D0908D0592
:102CE000EE80FF808C019501A301B4018A859B854C
:102CF0000E94251580919B0590919C059093210140
:102D00008093200181E08093A6058091A605813003
:102D100009F000C16AE070E080E090E00E946E0877
:102D20008091A605811191C039813A300CF4F2C02E
:102D300008E012E42A813B814C855D85B4018E85D3
:102D40009F850E944A0D4C815D814A5051092A811C
:102D50003B81B401C20102960E944A0DE889F989BB
:102D6000EE0FFF1FE955FE4F8081918128E530E08D
:102D70003093B0052093AF052A893B893093AE0587
:102D80002093AD054FEF5FEF66E875E00E941F11DD
:102D9000C0908A05D0908B05EE80FF80088519854C
:102DA0009501A301B4018A859B850E9425156EE1DA
:102DB00070E080E090E065960FB6F894DEBF0FBE3D
:102DC000CDBFDF91CF911F910F91FF90EF90DF90DA
:102DD000CF90BF90AF909F908F907F906F905F90BB
:102DE0004F903F902F900C946E083981353051F4FC
:102DF00020901A0130901B0186E990E09D8B8C8B0E
:102E00008981F3CE9981963079F420901C0130901D
:102E10001D0180919A0520EA3FE0823010F424EFF2
:102E200031E03D8B2C8BECCF398189813A302CF00D
:102E3000832F8650732E99EF790E26E930E03D8B73
:102E40002C8B22242394312CD0CE20919B053091C1
:102E50009C0580912001909121012817390709F4E0
:102E600054CF40919B0550919C05209120013091B9
:102E7000210180918C0590918D05241735070CF068
:102E80003FC0820D931D90938D0580938C0580919A
:102E90008C0590918D052C893D892817390724F4DC
:102EA00030938D0520938C0580918C0590918D0534
:102EB000181619063CF039813A302CF510928D0520
:102EC00010928C05C0908C05D0908D05EE80FF800F
:102ED000088519859501A301B4018A859B850E9407
:102EE000251580919B0590919C05909321018093DD
:102EF00020016EE170E080E090E00E946E0805CF56
:102F000082199309C0CF81E090E090938D05809362
:102F10008C05D8CF65960FB6F894DEBF0FBECDBF37
:102F2000DF91CF911F910F91FF90EF90DF90CF90A5
:102F3000BF90AF909F908F907F906F905F904F90D9
:102F40003F902F9008952F923F924F925F926F92F1
:102F50007F928F929F92AF92BF92CF92DF92EF9229
:102F6000FF920F931F93CF93DF9300D000D0CDB784
:102F7000DEB760E087E00E948A154090160150900D
:102F80001701320120E1620E711C20901401309073
:102F90001501410185E0880E911CA0901201B090AE
:102FA000130193E0A91AB1088091100190911101C9
:102FB00004979C838B8392E0490E511C2FEF221AB9
:102FC000320AC0900F01D12C7301840195014B810D
:102FD0005C81B201C1010E94251580919A05898307
:102FE000843058F0C0909605D090970595014B819C
:102FF0005C81B201C1010E94251560E088E00E9459
:103000008A1590910E019A834090160150901701F5
:10301000320120E1620E711C2090140130901501E4
:10302000410185E0880E911CA0901201B09013011F
:1030300093E0A91AB10880911001909111010297B3
:103040009C838B8392E0490E511C2FEF221A320A87
:103050008A81C82ED12C7301840195014B815C813A
:10306000B201C1010E9425159981943010F1C090E0
:103070009405D090950595014B815C81B201C10109
:103080000E9425150F900F900F900F90DF91CF9118
:103090001F910F91FF90EF90DF90CF90BF90AF9076
:1030A0009F908F907F906F905F904F903F902F9068
:1030B00008952A81622F70E090E080E00E94B3378B
:1030C0009B01AC0160E070E080E793E40E940B3765
:1030D00060930A0170930B0180930C0190930D0192
:1030E000D1CFCF92DF92EF92FF920F931F93CF93A6
:1030F00010928F0510928E058FEF9FEF909319011C
:1031000080931801C0919A05CC2371F090938F059C
:1031100080938E058FE190E0C23010F080E098EF50
:10312000909319018093180160E083E00E948A1552
:103130006091160170911701809114019091150111
:10314000CC2ED12C7B012EE0E20EF11C8C010A5F0B
:103150001F4F2091120130911301245031094091E9
:10316000100150911101445051096E5F7F4F02963A
:103170000E94251510928F0510928E058FEF9FEFFC
:10318000909319018093180160E084E00E948A15F1
:1031900060911601709117018091140190911501B1
:1031A000C090A105D090A2057B0120E1E20EF11CA8
:1031B0008C010B5F1F4F209112013091130123509E
:1031C00031094091100150911101445051096E5F35
:1031D0007F4F01960E94251560E085E00E948A15C8
:1031E0006091160170911701809114019091150161
:1031F000C090A305D090A4057B0120E1E20EF11C54
:103200008C010B5F1F4F209112013091130123504D
:1032100031094091100150911101445051096E5FE4
:103220007F4F01960E94251560E086E00E948A1576
:103230006091160170911701809114019091150110
:10324000C0909F05D090A0057B0120E1E20EF11C0B
:103250008C010B5F1F4F20911201309113012350FD
:1032600031094091100150911101445051096E5F94
:103270007F4F01960E942515CF911F910F91FF90CE
:10328000EF90DF90CF900C94A3178F929F92AF9204
:10329000BF92CF92DF92EF92FF920F931F93CF9343
:1032A000DF93D82FC62F8090120190901301A09029
:1032B0001001B0901101C0901601D0901701E0905C
:1032C0001401F090150110E000E09401A501B60191
:1032D000C7010E9488128AEF8C0F8230C8F40FEF6A
:1032E00017E0C63011F000E018EF9401A501B60117
:1032F000C7010E948812DF91CF911F910F91FF901B
:10330000EF90DF90CF90BF90AF909F908F900895F7
:103310008D2FC43061F481E08D0F9091A60591301E
:1033200011F41092A605C1E08A3008F081E0DA308D
:1033300010F08AEF8D0F6C2FDF91CF911F910F91BD
:10334000FF90EF90DF90CF90BF90AF909F908F90C5
:103350000C948A151F93CF93DF93182F1092A50515
:1033600080919D05D1E0811101C0D0E0C0E0809145
:103370009D0567E00E94451962E370E080E090E0FF
:103380000E946E0880919D0561E00E94451962E3EC
:1033900070E080E090E00E946E088091A505813089
:1033A00041F0CD0FC11718F380E0DF91CF911F914D
:1033B000089581E0FACF0F931F93CF93DF9320916D
:1033C0009A05C9E0D2E0223011F0C5E0D2E00091C8
:1033D0007D0510917E052CE330E03093B0052093FD
:1033E000AF0528E230E03093AE052093AD05A8018B
:1033F00066E875E00E94C310A80166E875E0CE019A
:10340000DF91CF911F910F910C941F11EF92FF92BA
:103410000F931F93CF93DF937C01EB018A0180EE22
:1034200091E09093010180930001452BD1F110921E
:1034300091051092E0041092E1041092E2041092BF
:10344000E30460910F0170E090E080E00E94B337E8
:103450009B01AC0168EF73E583EA9EE30E940B37A2
:103460006093DC047093DD048093DE049093DF04AA
:103470001093860500938505F0928805E0928705F4
:10348000D0938405C09383051092DB041092DA0474
:103490001092A705DF91CF911F910F91FF90EF90B0
:1034A000089581E08093910570930101609300017C
:1034B000072E000C880B990B0E94B53720E030E0F6
:1034C00040E251E40E940B376093E4047093E504FA
:1034D0008093E6049093E704ACCF1092BF0410925F
:1034E000BE041092B904109267032091CC042634D4
:1034F00079F480910F01813029F48093BE04809388
:10350000B9040895833068F081E08093BF04089582
:10351000029739F480910F01882319F081E080939C
:10352000670308958F929F92AF92BF92CF92DF92DE
:10353000EF92FF920F931F93CF93DF9380E00E944F
:10354000F40BEC0180E00E94F40BC80FD91F80E05F
:103550000E94F40BC80FD91F80E00E94F40BC80F23
:10356000D91FD7FD2396D595C795D595C79581E0E9
:103570000E94F40B8C01BE010D2E000C880B990BE0
:103580000E94B53720E030EE4CE95FE30E946A38D4
:103590009B01AC010E949A364B015C01809263034F
:1035A00090926403A0926503B092660320E030E03D
:1035B00048E452E40E940B376B017C01C092C804BE
:1035C000D092C904E092CA04F092CB041092CD04C8
:1035D00080919105882309F4C7C02091E4043091BB
:1035E000E5044091E6045091E704C701B6010E944A
:1035F000653818160CF0B8C060E08FE00E94EA074A
:1036000060E08EE00E94EA078BE190E00197F1F71D
:1036100090E080E00E94A40B90E080E00E94CC0B40
:103620008BE490E00197F1F781E08093CD048091E5
:1036300067038130E1F41C161D06CCF420E030E075
:103640004AE754E46091E0047091E1048091E2045F
:103650009091E3040E940B3760935F0370936003C3
:10366000809361039093620382E080936703B801C3
:10367000110F880B990B0E94B53720E030EE4CE912
:103680005FE30E946A3820E030E040E450E40E94AA
:103690006A38A50194010E9499366093C40470931E
:1036A000C5048093C6049093C7042091DC04309134
:1036B000DD044091DE045091DF040E946A384B0122
:1036C0005C0180925B0390925C03A0925D03B092D8
:1036D0005E0320910A0130910B0140910C01509141
:1036E0000D01C701B6010E946A386B017C0120E020
:1036F00030E04FE653E40E94653818160CF461C0C0
:10370000C0926803D0926903E0926A03F0926B035F
:1037100020E030E0A901C501B4010E94063787FF0F
:1037200008C010925B0310925C0310925D0310922C
:103730005E0360915B0370915C0380915D039091E7
:103740005E030E947D377093D1046093D004DF91B3
:10375000CF911F910F91FF90EF90DF90CF90BF908E
:10376000AF909F908F90089560910001709101013A
:10377000072E000C880B990B0E94B5379B01AC01FA
:10378000C701B6010E94653818160CF050CF60E0F2
:103790008FE00E94EA0760E08EE00E94EA078BE17A
:1037A00090E00197F1F790E080E00E94A40B90E098
:1037B00080E00E94CC0B8BE490E00197F1F782E06F
:1037C00034CF80E090E0AFE6B3E480936803909359
:1037D0006903A0936A03B0936B039ACF21E020930F
:1037E0008905853091055CF4049690939305809348
:1037F0009205059734F48EE48093090108950497A7
:10380000F4CF80E5F9CF6F927F928F929F92AF9223
:10381000BF92CF92DF92FF920F931F93CF93DF93CC
:10382000CDB7DEB728970FB6F894DEBF0FBECDBF79
:103830005C0188E0EEE2F1E0DE01119601900D926C
:103840008A95E1F71092A50588E1882E912C96E4DF
:10385000692E712C8091A505811132C0CE0101968F
:103860006C01F12C10E000E022E130E044E650E091
:103870006AE370E087E190E00E944A0DF6018191D1
:1038800091916F019092B0058092AF057092AE0554
:103890006092AD054FEF5FEF66E875E00E941F1183
:1038A00060EB74E080E090E00E946E088091A505D6
:1038B0008130D9F51092A505F11016C08093A705A7
:1038C00028960FB6F894DEBF0FBECDBFDF91CF9123
:1038D0001F910F91FF90DF90CF90BF90AF909F907E
:1038E0008F907F906F900895F1E0FF1202C082E008
:1038F000E5CF92E0F91203C080937C05E1CFC501CA
:1039000028960FB6F894DEBF0FBECDBFDF91CF91E2
:103910001F910F91FF90DF90CF90BF90AF909F903D
:103920008F907F906F900C94EE1BF394E4E0FE1266
:1039300099CF90CF0F931F93CF93DF93EC0180919A
:103940006703823040F48091BF04823020F480917C
:10395000BE04823060F010E000E02AE230E04BE488
:1039600050E064E070E089EC90E00E944A0D8091A4
:10397000CC04843509F06CC080919105813009F048
:1039800043C010E000E022E130E04BE350E063E0B0
:1039900070E08BE890E00E944A0D22E230E04AE1BC
:1039A00050E066E170E08EE890E00E944A0D8CE8FD
:1039B00090E09093B0058093AF058FE090E09093F6
:1039C000AE058093AD0540EE5FEF66E875E02597A4
:1039D00091F481E392E00E941F1120EE3FEF4CE949
:1039E00050E069E170E082E990E0DF91CF911F91B2
:1039F0000F910C94B21388E392E00E941F1120EE05
:103A00003FEF48E650E0EDCF8CE890E09093B005B2
:103A10008093AF058FE090E09093AE058093AD0565
:103A200040EE5FEF66E875E0259749F48FE392E09A
:103A30000E941F1120EE3FEF43E355E0D2CF83E415
:103A400092E00E941F1120EE3FEF40EE54E0C9CFFC
:103A500088E790E09093B0058093AF058FE090E009
:103A60009093AE058093AD05C630D10569F440EE64
:103A70005FEF66E875E087E492E00E941F1120EE98
:103A80003FEF4AE754E0ADCFC230D10569F440EED4
:103A90005FEF66E875E080E592E00E941F1120EE7E
:103AA0003FEF44E154E09DCF82E890E09093B00571
:103AB0008093AF05C730D10569F440EE5FEF66E84B
:103AC00075E089E592E00E941F1120EE3FEF41E78B
:103AD00053E087CF239769F440EE5FEF66E875E027
:103AE00080E692E00E941F1120EE3FEF44EC53E08D
:103AF00078CFDF91CF911F910F910895CF931092BE
:103B0000A605C1E0C093A50582E00E94C10790937D
:103B10005A03809359032091590330915A0380919D
:103B20005703909158032817390709F442C08FB7FB
:103B3000F89440915705509158056091590570913E
:103B40005A058FBF8091530390915403A091550360
:103B5000B09156030996A11DB11D84179507A607BC
:103B6000B7073CF5409353035093540360935503B8
:103B7000709356038091590390915A039093580380
:103B800080935703809152038F5F809352038091FB
:103B90005203813071F085E00E94C10720915903E2
:103BA00030915A038217930731F0C093AA051092FF
:103BB0005203CF9108958FEF8093AA05F8CFCF934A
:103BC0001092A505C1E0C093A60583E00E94C1073D
:103BD00090935103809350032091500330915103EF
:103BE00080916A0590916B052817390709F456C032
:103BF0008FB7F89440915705509158056091590539
:103C000070915A058FBF80914C0390914D03A09104
:103C10004E03B0914F030996A11DB11D841795075E
:103C2000A607B707DCF540934C0350934D03609310
:103C30004E0370934F0380915003909151039093E2
:103C40006B0580936A0580914B038F5F80934B03D4
:103C500080914B03813011F184E00E94C1072091D3
:103C600050033091510382179307D1F080919B0547
:103C700090919C05019790939C0580939B05C09320
:103C8000900580919B0590919C058230984F34F46B
:103C90008FEF9FEF90939C0580939B05CF910895A4
:103CA00080919B0590919C05019690939C05809333
:103CB0009B058FEF8093900510924B0380919B059D
:103CC00090919C058F3F97404CF381E090E0E2CFCC
:103CD000CF93DF9300D01F92CDB7DEB72CE02093B7
:103CE000B80020E429839C0194E0369527959A95A5
:103CF000E1F72A838295807F8B83E091BD06F09166
:103D0000BE0684819581039738F480E00F900F9070
:103D10000F90DF91CF91089581819281208131E0D0
:103D20003093EA0520930C061092EB0510920D06D5
:103D3000DC01ED91FC910280F381E02D43E050E045
:103D4000BE016F5F7F4F09950397F9F681E00E94EE
:103D50001F098111DACF88E48093B80081E0D6CFC3
:103D600060E08EE00E94EA0760E08FE00E94EA07D0
:103D700060E081E10E94EA0760E080E10E94EA07DA
:103D800087E390E00197F1F790E080E00E94A40BB8
:103D900090E080E00E94CC0B90E080E00E94681EE2
:103DA00083E290E00197F1F70895CF92DF92EF92CE
:103DB000FF920F931F93CF93DF93EC016B017A0176
:103DC00089010E94B01E84E58093CC048091A805EF
:103DD0009091A9058130910509F073C08DE480931D
:103DE000CC04C530D1050CF071C0239721F461E0FB
:103DF00081E10E94EA0780919A05833050F461E0E6
:103E00008EE00E94EA0760E570E080E090E00E94AA
:103E10006E088BE490E00197F1F7D0927305C092A1
:103E20007205F0927705E092760510936D05009388
:103E30006C0580919A05843098F0409196055091D8
:103E400097052091940530919505429FC001439FAD
:103E5000900D529F900D112490936F0580936E05E5
:103E60008091CC04843521F18AE08C9D90018D9D58
:103E7000300D112430937305209372058E9D9001AF
:103E80008F9D300D11243093770520937605809F08
:103E90009001819F300D112430936D0520936C05A6
:103EA00061E080E10E94EA0787E390E00197F1F783
:103EB000DF91CF911F910F91FF90EF90DF90CF9006
:103EC0000895029709F08DCF86E489CF279721F0D6
:103ED00061E081E10E94EA0780919A05833008F051
:103EE00098CF61E08FE08DCF85ED8093BC0080910D
:103EF000E6059091E705A091E805B091E9050796E0
:103F0000A11DB11D23E0B695A795979587952A9594
:103F1000D1F72091BC0024FD03C01092E405089560
:103F20004091E6055091E7056091E8057091E9053B
:103F3000452B462B472B69F30097A105B10541F0AE
:103F40002AE22A95F1F700C00197A109B109E1CF52
:103F50008091E5050C94FE083F924F925F926F921C
:103F60007F928F929F92AF92BF92CF92DF92EF9209
:103F7000FF920F931F93CF93DF93CDB7DEB7609778
:103F80000FB6F894DEBF0FBECDBF2B013C017A0106
:103F90006901188B0F8710E0812C912CA12C8FE3E5
:103FA000B82E1E151F0464F420E030E040E251E416
:103FB000C501B4010E940B374B015C011F5FF1CFBB
:103FC000A3019201C501B40190580E9465383324C1
:103FD000339410E018164CF48DE289831A8277FA34
:103FE000709477F87094312C11E0A5019401C3010D
:103FF000B2010E949A362B013C0120E030E040E003
:104000005FE40E94653887FD25C067E672E0CE0157
:1040100001960E94A83A4F855889B601CE010196B3
:104020000E941F1160960FB6F894DEBF0FBECDBF81
:10403000DF91CF911F910F91FF90EF90DF90CF9084
:10404000BF90AF909F908F907F906F905F904F90B8
:104050003F900895C301B2010E9484374B015C0177
:104060002AE041E050E04C0F5D1F410F511D0E94BE
:10407000283601E0010FE1E0F0E0EC0FFD1FE10F59
:10408000F11D8081811147C0130D8EE28083802F46
:1040900090E0E1E0F0E0EC0FFD1FE80FF91F20E3F6
:1040A00020838C0F9D1FFC011282C501B4010E9468
:1040B000B3379B01AC01C301B2010E949936F12CC8
:1040C0003F2C300EEF1409F4A6CF212F2F0D2930ED
:1040D0000CF0A1CFF39420E030E040E251E40E94E4
:1040E0006A382B013C010E9484374B015C0141E09E
:1040F00050E04C0F5D1F430D511D2AE00E942836F1
:10410000C501B4010E94B3379B01AC01C301B201E8
:104110000E949936D5CF102FACCF0F931F93CF931A
:10412000DF93EC010E949A1C8091CC048D3419F528
:10413000809167038230D1F44FEF57E066E875E075
:104140008BE692E00E941F1160915F037091600303
:1041500080916103909162030FEF17E026E835E04C
:1041600041E050E00E94AC1F10926703DF91CF91B5
:104170001F910F9108958634C9F78091BF04823052
:10418000D1F44FEF57E066E875E081E792E00E94D6
:104190001F116091C0047091C1048091C20490917C
:1041A000C3040FEF17E026E835E041E050E00E943D
:1041B000AC1F1092BF048091BE048230B9F682EC2D
:1041C00090E09093B0058093AF0585E290E09093E6
:1041D000AE058093AD054FEF57E066E875E088E7E0
:1041E00092E00E941F11239739F44FEF57E066E8E1
:1041F00075E08DE20E9427106091BA047091BB04B3
:104200008091BC049091BD040FEF17E026E835E0E3
:1042100041E050E00E94AC1F1092BE04A7CF1F9354
:10422000CF93DF93EC01162F0E948336181739F0D5
:10423000612FCE01DF91CF911F910C948B36DF91CE
:10424000CF911F9108951F93CF93DF93EC01162F09
:10425000672F0E940F21612FCE010196DF91CF9130
:104260001F910C940F210C9483360F931F93CF93BF
:104270008C010E943321C82FC80101960E9433216E
:104280002C2F30E0322F2227820F932F911DCF91B8
:104290001F910F9108950F931F93CF93DF9394E194
:1042A0008902E0011124823034F4CE0101960E948B
:1042B000332180939A05CE0102960E943321082F64
:1042C00080939905CE0103960E943321182F809385
:1042D0009805CE0104960E9435219093A205809303
:1042E000A105CE0106960E9435219093A0058093EA
:1042F0009F05CE0108960E9435219093A4058093D6
:10430000A305CE010A960E94352190931F01809348
:104310001E01CE010C960E94352190931D018093C1
:104320001C01CE010E960E94352190931B018093B3
:104330001A01CE0140960E943521909397058093F3
:104340009605CE0142960E94352190939505809363
:104350009405E02F000FFF0BE054FE4F8081809307
:104360000F01E12F110FFF0BE754FE4F8081809367
:104370000E01DF91CF911F910F9108954AE06CE6F5
:1043800073E00E941D364CE653E0FA0101900020D4
:10439000E9F7AF014D5653406CE673E08EE096E0CE
:1043A0000E948B066AE08EE096E00C942B078091C9
:1043B000E8048F5F8093E804E82FF0E0EE0FFF1F22
:1043C000E55BFE4F2081318130937E0520937D0592
:1043D0008A3010F01092E80410927C051092890542
:1043E00082E494E00C94BE212F923F924F925F9210
:1043F0006F927F928F929F92AF92BF92CF92DF92F5
:10440000EF92FF920F931F93CF93DF93CDB7DEB759
:104410002E970FB6F894DEBF0FBECDBF20919A0540
:1044200029832230C0F51092D9041092D8048091CB
:104430007005909171059B838A839093D704809334
:10444000D604BC01990F880B990B0E94B53720E068
:1044500030E04AE754E40E940B376093780570938C
:10446000790580937A0590937B058AE02A813B81C8
:10447000829FB001839F700D1124072E000C880BC2
:10448000990B0E94B5376093E0047093E104809328
:10449000E2049093E30481E591E00E947B0661E0F1
:1044A00070E080E090E00E946E0890E080E00E9462
:1044B000CC0B83E00E94F40BBC01990F880B990B85
:1044C0000E94B53720E030EE4CE95FE30E946A3885
:1044D0002B013C01AC019B010E949A36A301920181
:1044E0000E949A362FE632E143E85AE30E946A3886
:1044F0002B013C014092D2045092D3046092D40428
:104500007092D5041092D1041092D0041092CF046E
:104510001092CE0480E090E29093BC068093BB069C
:104520009093BA068093B90690E080E00E94A40BB5
:1045300090E080E00E94CC0B6AE070E080E090E0C8
:104540000E946E083981323009F05BC1809181058B
:10455000909182050E94A40B6EE170E080E090E0F3
:104560000E946E0880917F059091800518161906AB
:1045700044F40E94CC0B6CE370E080E090E00E9479
:104580006E0860E177E280E090E00E946E0880E5CE
:1045900091E00E947B0661E070E080E090E00E9484
:1045A0006E0885E590E09093B0058093AF0589E0B3
:1045B00090E09093AE058093AD0540EE57E067E93B
:1045C00071E08DE792E00E941F1110E000E02BE007
:1045D00030E046E150E06CE070E086E590E00E945B
:1045E0004A0D88E590E09093B0058093AF0583E194
:1045F00090E09093AE058093AD050FEF17E827E9A3
:1046000031E042E050E0C301B2010E94AC1F2DEC4A
:104610003CEC4CE450E46091D2047091D30480915E
:10462000D4049091D5040E94063787FF0CC08DEC0E
:104630009CECACE4B0E48093D2049093D304A093B8
:10464000D404B093D504C090D204D090D304E090A9
:10465000D404F090D5042DEC3CEC4CE450E4C701BC
:10466000B6010E94653887FF1FC00E948E0D88E545
:1046700090E09093B0058093AF0583E190E0909334
:10468000AE058093AD050FEF17E027E931E042E07A
:1046900050E0C701B6010E94AC1F10929D058FEF3C
:1046A0000E94AA1980939D0580919A05823009F491
:1046B00095C28130C1F580E494E00E94BE218091D2
:1046C0000F0190E00E94BE2180919905082E000CF8
:1046D000990B845B9B4F0E94BE2181E494E00E9471
:1046E000BE2180910E0190E00E94BE21809198052C
:1046F000082E000C990B8A5A9B4F0E94BE21809174
:104700000901803509F037C188E394E00E94BE2199
:104710008091CC0490E088519C4F0E94BE218BE296
:1047200094E00E94BE218091B9048093B80488E788
:1047300093E09B838A8392E0D92E2FEEC22E0A81CA
:104740001B8108571340E090D004F090D104E0168C
:10475000F10608F413C1EA81FB81F0808091B8046E
:104760008130F9F4003A1105E0F06F2D70E090E02F
:1047700080E00E94B33720910A0130910B014091F3
:104780000C0150910D010E940B374B015C0120E0A0
:1047900030E040E85FE30E946538181614F4D092C8
:1047A000B804EC2CEF1840917D0550917E05F12C5A
:1047B000B701C8010E94560FEA81FB811192FB8369
:1047C000EA8380919A05813009F0B9CF4AE06CE61E
:1047D00073E0C7010E941D36009769F0FC0101904B
:1047E0000020E9F73197AF01481B590BBC018EE05F
:1047F00096E00E948B066AE08EE096E00E942B070E
:104800009ECF10E000E0F12CE12C81E090E09E874B
:104810008D871F821E82E1E0F0E0FD83EC83D12CC6
:10482000C12CC6010E94CC0BF9816CE370E080E0E2
:1048300090E0F23020F064E070E080E090E00E94D0
:104840006E0890E080E00E94A40B61E070E080E0E0
:1048500090E00E946E0825E1C216D10414F00E9477
:10486000921A312C212CC1010E94A40B0E94921A91
:104870003091CD043887323009F489CE8091D0044C
:104880009091D1049B838A83909168039987E091EA
:104890006903EA87F0916A03FB8720916B032C87F9
:1048A0008A819B81EE81FF81E817F907E4F1298570
:1048B0003A854B855C85612F702F8F2D9E2D0E9430
:1048C0009A36162F072FF82EE92E2D853E852F5F5D
:1048D0003F4F3E872D87EA81FB81E034F1400CF0A9
:1048E00056CE3885313009F452CE8C819D81280E08
:1048F000391E90EA29169FE039060CF4B4CF809156
:104900009105811105C0EC81FD813196FD83EC8319
:10491000F0E7CF1AFEEFDF0A20EAC2162FE0D20638
:1049200009F07FCF34CEED85FE85BF01FF0F880BE8
:10493000990B0E94B5379B01AC01612F702F8F2D11
:104940009E2D0E940B370E947D376093CE0470939A
:10495000CF04EE81FF81E858FC4F608319850A85FA
:10496000FB84EC842A813B813F832E8381E090E0AD
:104970009E878D87B0CF86E394E0C8CE8091B9043E
:10498000882371F0A501940160E070E08AEF93E460
:104990000E940B370E947D377093DB046093DA042A
:1049A000C090D604D090D704D7FC18C18091CE0413
:1049B0009091CF042FEE30E0281B390B3B832A83E4
:1049C000B0909A058091CD04823009F051C08EE1FB
:1049D00090E09093B0058093AF0588E290E09093CB
:1049E000AE058093AD0540E058EF66E875E087E8D6
:1049F00092E00E941F1140E058EF66E875E0809158
:104A00000001909101010E94C31040E058EF66E858
:104A100075E08DE992E00E941F1131E0B3120AC0E7
:104A20008DE294E00E94BE218091000190910101ED
:104A30000E94BE2160EA7FE080E090E02E960FB6F3
:104A4000F894DEBF0FBECDBFDF91CF911F910F91C4
:104A5000FF90EF90DF90CF90BF90AF909F908F909E
:104A60007F906F905F904F903F902F900C946E08C6
:104A700083E2E81681E0F80620F082E2E82EFF24C7
:104A8000F394EA81FB81EB3EF105D0F010E000E009
:104A900028E030E047E150E06EED70E081E291E027
:104AA0000E944A0D28E030E047E050E06EED70E0F3
:104AB00089E391E00E944A0D2AEE30E03B832A838D
:104AC00031E0B3120CC08091CC04843509F09FC052
:104AD0008AE294E00E94BE21C6010E94BE2180911C
:104AE000DA049091DB041816190654F487E394E075
:104AF0000E94BE218091DA049091DB040E94BE21C5
:104B0000F092B005E092AF058A819B810597909362
:104B1000AE058093AD0500917D0510917E058091D5
:104B2000CC04843509F009C180919105811172C0CE
:104B3000A80167E971E0C6010E94C310A80167E9F6
:104B400071E085E092E00E941F112091780530917C
:104B5000790540917A0550917B056091C804709168
:104B6000C9048091CA049091CB040E940B370E9423
:104B70007D374B017093D9046093D804161617063D
:104B8000DCF48EE1E81AF108F092B005E092AF058E
:104B9000EA81FB813497F093AE05E093AD05A8015F
:104BA00067E971E084EA92E00E941F11A80167E9B9
:104BB00071E0C4010E94C31080919A05813051F4C4
:104BC00080E394E00E94BE218091D8049091D904A2
:104BD0000E94BE211092D9041092D8042E960FB6CE
:104BE000F894DEBF0FBECDBFDF91CF911F910F9123
:104BF000FF90EF90DF90CF90BF90AF909F908F90FD
:104C00007F906F905F904F903F902F9008958FE22C
:104C100094E060CF6091E4047091E5048091E60433
:104C20009091E7040E947D374B01F5E0EF0EF11CF7
:104C3000F092B005E092AF058A819B810296909335
:104C4000AE058093AD05A80167E971E0C4010E943B
:104C5000C310A80167E971E089E992E00E941F1181
:104C600020E030E04AE754E46091C4047091C50448
:104C70008091C6049091C7040E940B37F092B00552
:104C8000E092AF052A813B81235F3F4F3093AE0511
:104C90002093AD0527E931E041E050E00E94AC1FD0
:104CA00040917D0550917E0567E971E087EA92E0C9
:104CB0000E941F1190E080E00E94A40B90E080E031
:104CC0000E94CC0B64E170E080E090E00E946E08EE
:104CD00080919A05813009F081CF8CE294E00E94A6
:104CE000BE21C4010E94BE218DE394E00E94BE213A
:104CF0006091C4047091C5048091C6049091C7046A
:104D00000E947D37CB012E960FB6F894DEBF0FBE02
:104D1000CDBFDF91CF911F910F91FF90EF90DF906A
:104D2000CF90BF90AF909F908F907F906F905F904B
:104D30004F903F902F900C94BE2120E030E04AE746
:104D400054E46091E0047091E1048091E204909158
:104D5000E3040E940B3727E931E042E050E00E9473
:104D6000AC1F00917D0510917E05A80167E971E0F7
:104D700087EA92E00E941F118091DA049091DB048F
:104D800018161906F4F433E2E31AF108F092B005AC
:104D9000E092AF05EA81FB813697F093AE05E09390
:104DA000AD05A80167E971E00E94C310A80167E999
:104DB00071E08AEA92E00E941F111092DB041092C7
:104DC000DA048091CC04863409F008CF20E030E08A
:104DD000A901609178057091790580917A0590918B
:104DE0007B050E940637811113C08091C804909101
:104DF000C904A091CA04B091CB048093C0049093DD
:104E0000C104A093C204B093C30482E08093BF04A2
:104E10008091BE04813009F0E1CE20E030E040E82E
:104E20005EE36091C8047091C9048091CA049091B6
:104E3000CB040E94063787FFD1CE60917005709138
:104E40007105072E000C880B990B0E94B5372AE0DC
:104E500037ED43E25BE30E946A386093BA047093D3
:104E6000BB048093BC049093BD0482E08093BE0495
:104E7000B5CE1F920F920FB60F9211242F933F932E
:104E80004F935F936F937F938F939F93AF93BF9352
:104E9000EF93FF938EE096E00E940907FF91EF9158
:104EA000BF91AF919F918F917F916F915F914F9142
:104EB0003F912F910F900FBE0F901F9018951F924A
:104EC0000F920FB60F9211242F938F939F93EF930E
:104ED000FF93E0911E06F0911F068081E091240669
:104EE000F091250682FD1BC09081809127068F5F7F
:104EF0008F7320912806821741F0E0912706F0E099
:104F0000E25FF94F958F80932706FF91EF919F9174
:104F10008F912F910F900FBE0F901F901895808149
:104F2000F4CF1F920F920FB60F9211242F933F933D
:104F30008F939F93AF93BF9380915705909158059E
:104F4000A0915905B0915A053091560523E0230FE1
:104F50002D3758F50196A11DB11D2093560580935C
:104F6000570590935805A0935905B0935A05809121
:104F70005B0590915C05A0915D05B0915E05019681
:104F8000A11DB11D80935B0590935C05A0935D0509
:104F9000B0935E05BF91AF919F918F913F912F91FB
:104FA0000F900FBE0F901F90189526E8230F0296C2
:104FB000A11DB11DD2CF1F920F920FB60F921124D7
:104FC0002F933F934F935F936F937F938F939F9311
:104FD000AF93BF93EF93FF93E0910401F09105012C
:104FE0000995FF91EF91BF91AF919F918F917F9123
:104FF0006F915F914F913F912F910F900FBE0F9046
:105000001F9018951F920F920FB60F9211242F9395
:105010003F934F935F936F937F938F939F93AF9340
:10502000BF93EF93FF93E0910201F0910301099583
:10503000FF91EF91BF91AF919F918F917F916F9170
:105040005F914F913F912F910F900FBE0F901F9046
:1050500018951F920F920FB60F9211242F933F9322
:105060004F935F936F937F938F939F93AF93BF9370
:10507000EF93FF938091B900887F803609F44AC08E
:10508000F0F5883209F4A7C018F5803109F49BC007
:10509000B8F4882309F4F9C0883009F494C0FF916A
:1050A000EF91BF91AF919F918F917F916F915F91A0
:1050B0004F913F912F910F900FBE0F901F90189519
:1050C000883109F488C0803251F78093E20514C01A
:1050D000803409F49DC040F48033B9F38833F9F685
:1050E0008093E20585ECB0C0803509F485C0883531
:1050F00009F496C0883499F60E94741FD0CF88397D
:1051000009F48CC038F5883729F050F4883611F04E
:10511000803729F683E08093E4051092550557C047
:10512000883809F47BC0803919F0803809F0B7CF8E
:1051300080915505803208F071C0E091550581E0FD
:105140008E0F809355058091BB00F0E0EB5CFA4F29
:1051500080833DC0803B39F0E0F4803A09F479C0A7
:10516000883A09F09CCF84E08093E40510923405DE
:1051700010923305E091B305F091B4050995809143
:10518000330581110FC081E0809333051092130520
:1051900009C0803C09F4A6CF883C09F4A3CF883B22
:1051A00009F07DCFE091340581E08E0F80933405C6
:1051B000F0E0ED5EFA4F80818093BB009091340562
:1051C0008091330529C08091BF058093BB0085EC99
:1051D0008093BC0064CF9091E1058091E005981721
:1051E00058F5E091E10581E08E0F8093E105F0E054
:1051F000E054FA4F8081E9CFE091E10581E08E0F24
:105200008093E1058091BB00F0E0E054FA4F808389
:105210009091E1058091E0059817C8F285E8D8CF14
:10522000E091E10581E08E0F8093E1058091BB0064
:10523000F0E0E054FA4F80838091E30581115CCF68
:1052400081E08093BE0584EA8093BC001092E4055F
:1052500026CF85EC8093BC001092E4058091550523
:10526000803230F4E0915505F0E0EB5CFA4F1082AB
:105270006091550570E0E091B105F091B20585E3CC
:1052800095E00995109255050ACF1092E20534CFAA
:10529000EEE0F6E01382128288EE93E0A0E0B0E048
:1052A00084839583A683B78325EE31E03183208301
:1052B00025EC30E03587248724EC30E037872687DB
:1052C00020EC30E0318B208B21EC30E0338B228BD3
:1052D00022EC30E0358B248B26EC30E0378B268BAC
:1052E000118E128E138E148EEBEAF6E01382128268
:1052F00084839583A683B78387EF91E0918380832E
:105300001092BE061092BD0687E090E09093B8061A
:105310008093B7060895CF93DF93CDB7DEB7649738
:105320000FB6F894DEBF0FBECDBF789484B582600F
:1053300084BD84B5816084BD85B5826085BD85B539
:10534000816085BD80916E00816080936E001092B7
:105350008100809181008260809381008091810032
:1053600081608093810080918000816080938000C3
:105370008091B10084608093B1008091B000816021
:105380008093B00080917A00846080937A0080914D
:105390007A00826080937A0080917A0081608093A5
:1053A0007A0080917A00806880937A001092C10020
:1053B000E0911E06F0911F0682E08083E0911A06BC
:1053C000F0911B061082E0911C06F0911D068FECF7
:1053D000808310922606E0912206F091230686E053
:1053E0008083E0912006F091210680818061808396
:1053F000E0912006F0912106808188608083E09111
:105400002006F0912106808180688083E09120064B
:10541000F091210680818F7D808362E083E00E948D
:10542000180862E084E00E94180862E082E00E94AE
:10543000180862E085E00E94180883E00E94C10716
:1054400090936B0580936A058FED9DE19093050124
:105450008093040180916900837F84608093690058
:10546000E99A8EE79DE19093030180930201809178
:1054700069008C7F816080936900E89A61E087E031
:105480000E94180861E080E10E94180860E080E155
:105490000E94EA0761E08EE00E94180860E08EE05A
:1054A0000E94EA0761E08FE00E94180860E08FE048
:1054B0000E94EA0761E081E10E94180860E081E152
:1054C0000E94EA0781E08093690589E080930801E2
:1054D0008AE08093070184E1809306010E94BD0A5F
:1054E00060E084E10E94EA0761E084E10E9418081C
:1054F00061E08AE00E94EA0761E08AE00E94180801
:1055000061E089E00E94EA0761E089E00E941808F2
:1055100080E491E0909325018093240180EF90E056
:1055200090932701809326011092B0051092AF0549
:105530001092AE051092AD058FEF9FEF9093670527
:105540008093660590936505809364059093630549
:105550008093620590936105809360058CB58C7F84
:105560008CBD8DB581608DBD8CB58F7D8CBD8CB5AE
:10557000837F8CBD8CB580935F051091060111234C
:1055800011F40C94143661E0812F0E94EA0765E063
:1055900070E080E090E00E946E0860E0812F0E9441
:1055A000EA0764E170E080E090E00E946E0861E04C
:1055B000812F0E94EA0766E970E080E090E00E9497
:1055C0006E08EAE2F1E0D4900BE211E0DA942FEFFA
:1055D000D21689F1F80184910E94320C7801F2E030
:1055E000EF0EF11CF8013196C4900C2D0F77570186
:1055F000102F115040F0F50184910E94510CFFEFE3
:10560000AF1ABF0AF6CF0E0D1F2D111DC7FEDECF3C
:1056100078012FEFE21AF20AF801649170E090E04D
:1056200080E06F3F21F464EF71E080E090E00E9441
:105630006E088701CBCF86E30E94320C88EE0E9471
:10564000510C0E948E0D80E591E00E947B060E9425
:10565000E7088091BD069091BE06009711F00E9468
:105660001F3A86E090E00E9483398C0180E6D801E1
:105670008C938BEA96E012969C938E9311971396D7
:105680001C92139780E290E015969C938E9314974A
:105690001093BE060093BD060E94E708FF24F39412
:1056A000F801F382C8010E940F0AF092BB0586E060
:1056B0008093B70561E00E94180861E08091B7050A
:1056C0000E94EA0788E695E09093BD058093BC05AB
:1056D0000E94BD0A83E690E00E94332190E09093FF
:1056E000A9058093A8058091360190913701A0917A
:1056F0003801B0913901898B9A8BAB8BBC8BD090E0
:10570000AB051092AA050E94B01EA090AB05B09008
:10571000AC05B092A905A092A8050E948E0D41E0AB
:10572000A114B10409F040E070EEE72E74E0F72E0A
:1057300003E315E020EF3FEF6DEA72E090E080E0D8
:105740000E94911441E091E0A916B10409F040E0F3
:1057500064E1E62E64E0F62E0AE714E02FEF37E866
:1057600065EB72E080E590E00E94911441E0A2E0D8
:10577000AA16B10409F040E051E7E52E53E0F52EFA
:1057800004EC13E02FE13CEF6CEB72E080EA90E078
:105790000E9491148091A705823009F456C010929E
:1057A000A6051092A5058091A605813011F00C94F4
:1057B000C8351092AA05D090A8058091A905D0926D
:1057C000AB058093AC051092A60582E590E090931E
:1057D000B0058093AF0584E390E09093AE0580938D
:1057E000AD054FEF5FEF66E875E083EC92E00E9455
:1057F0001F111092A60560E971E080E090E00E9420
:105800006E081092A60564E873E080E090E00E94C4
:105810006E088091A605813009F09CC110E000E07F
:1058200021E130E04EE250E068E270E081E590E096
:105830000E944A0D1092A50583E690E00E94332154
:105840000E944B219091A8059C878091A80590917A
:10585000A905892B41F48091A3059091A405892B7A
:1058600011F448E0D42EED2DEE0FFF0BE953FE4F5F
:10587000E080F180AC85EA2FEE0FFF0BE752FE4F80
:10588000C080D1801092A70510E000E023E130E055
:1058900043E550E06DE070E08AEA90E00E944A0D36
:1058A0008CEA90E09093B0058093AF0589E190E099
:1058B0009093AE058093AD0540EE5FEF66E875E02E
:1058C000C6010E941F1184E690E00E943321D82E69
:1058D00080939E051816ECF487E890E09093B0054D
:1058E0008093AF0584E390E09093AE058093AD057F
:1058F00005E610E0C8010E9433214FEF5FEF66E834
:1059000075E00E9427100F5F1F4F8BE9800F8D15E8
:105910008CF310E000E024E130E043E750E06DE379
:1059200070E083E590E00E944A0D85E590E0909359
:10593000B0058093AF058BE490E09093AE05809323
:10594000AD054FEF5FEF66E875E0C7010E941F11DC
:105950002FEF3FEF40E058EF60E58DE790E00E94C9
:10596000BC122FEF3FEF4FE150E06EE489E091E091
:105970000E94BC1208E510E01093B0050093AF053B
:1059800080E7C82ED12CD092AE05C092AD054FEF66
:105990005FEF66E875E089EC92E00E941F111093BA
:1059A000B0050093AF0592EAE92EF12CF092AE0516
:1059B000E092AD054FEF5FEF66E875E08FEC92E0A7
:1059C0000E941F111093B0050093AF0584ED90E085
:1059D0009093AE058093AD054FEF5FEF66E875E0FD
:1059E00085ED92E00E941F1103EB10E01093B005CB
:1059F0000093AF05D092AE05C092AD054FEF57E8CA
:105A000066E875E08BED92E00E941F1186EE90E053
:105A10009093B0058093AF0542E35BEF66E875E0D5
:105A200082EE92E00E941F111093B0050093AF0523
:105A3000F092AE05E092AD054FEF5FEF66E875E0DE
:105A400088EE92E00E941F111093B0050093AF05FD
:105A500085ED90E09093AE058093AD054FEF5FEF3D
:105A600066E875E086EF92E00E941F110E947118AF
:105A700080912201815080939D05512C2BE0422E74
:105A80003FE1232E312C80919D058F5F80939D05F2
:105A9000B1E0B093A5051092AA058091A5058130CB
:105AA00009F024C18091AA058823B9F32FEF3FEFB5
:105AB00040E058EF60E58DE790E00E94BC122FEFC8
:105AC0003FEF4FE150E06EE489E091E00E94BC12AC
:105AD0008091AA0518160CF001C180919D058F5F79
