:100000000C944F060C941D260C94F6250C94770640
:100010000C9477060C9477060C9477060C9477066C
:100020000C9477060C9477060C9477060C9477065C
:100030000C9477060C9477060C9477060C9477064C
:100040000C94AC250C9477060C947A250C945425CA
:100050000C9477060C9477060C9477060C9477062C
:100060000C9444260C9477061480180000090212A0
:100070000212021202120212020928090211040FCE
:10008000060D080B0A090C070E05100312011409CE
:100090000212021202120212021202091480180045
:1000A00000090212021202120212021202091401C3
:1000B000120310050E070C090A0B080D060F041198
:1000C0000209280902120212021202120212020985
:1000D00000000000240027002A0000000000250086
:1000E00028002B0000000000230026002900040443
:1000F00004040404040402020202020203030303D0
:1001000003030102040810204080010204081020AB
:100110000102040810200000000800020100000392
:100120000407000000000000000015EF0303800238
:10013000CF0300C130ED0464031281E80385007829
:10014000CB05392C003402F70120EA020000C0017F
:1001500023C10110C5023E28C701863601483A0175
:1001600055B1020018B603088227F20100260101EA
:10017000E00F0F312B0C0E084EF1370710030E095C
:1001800000E10F000E1403110731C148080F0C31B4
:10019000360F11807829000701200300000001FAC2
:1001A00003C000C00528FE28FE28052452FF4A246B
:1001B00006626408102646055CA2520C1201C002B9
:1001C0007E8102817E02C0C00508083E0808010346
:1001D0000508080808080102030638C0047C82826A
:1001E0007C0240FE04468A9262044482926C0418A7
:1001F00068FE0804F4A2A29C047C92924C04808EB7
:10020000B0C0046C92926C046492927C011201134F
:1002100003081422031414140322140804408A90BF
:1002200060083C4299A5B9854438060638C8C838E4
:100230000606FE929292926C067C8282828244062C
:10024000FE828282827C05FE9292928205FE9090CE
:100250009080067C828292945E06FE10101010FE42
:1002600001FE040C0202FC05FE1028448204FE027A
:10027000020208FEC0300C0C30C0FE06FEC0300C7E
:1002800002FE067C828282827C06FE9090909060C4
:10029000067C82828A867D06FE909090906E056430
:1002A0009292924C058080FE808005FC020202FC46
:1002B00005C0380638C007C03806180638C005C65D
:1002C000281028C605C0201E20C005868A92A2C21A
:1002D00002FF8103601C030281FF0340804005028E
:1002E0000202020202804004042A2A1E04FE222284
:1002F0001C041C222214041C2222FE041C2A2A187C
:10030000027E90041925253E04FE10201E01BE0227
:1003100001BF04FE18240201FE073E20203E2020DB
:100320001E043E20201E051C2222221C043F2424E1
:1003300018041824243F023E2004122A2A24027C96
:1003400022043C02023E0438060638053806180628
:10035000380336083603310A3C03262A32030836AE
:1003600041017F0341360804204020400015801ED3
:1003700000001302130213021302130213021302EA
:1003800013020C0205020C0205020C090C090C02F6
:10039000130213020F0103020D0303020B050302F4
:1003A000072A0405030205020603030205020801E9
:1003B0000A0213021302130213021302130213029E
:1003C00015801E00021302130213021302130213FC
:1003D000021302130205020C0205020C090C091398
:1003E0000213021302130206010C0204030C0202A0
:1003F00005052C0502020505020502040305020D90
:100400000105021302130213021302130213021353
:1004100017002200FFFFF9FFFFF3FFFFE7FFFFCF09
:10042000FFFF9FFFFF3FFFFE7FFFFCFE6001FCC060
:1004300003F99FFFF33FFFE7FFFFCFFBFF99C7FFE4
:10044000320FFE6001FCC003F99067F338CFE7FD7F
:100450009FCFFF3F99FE7F33FC00600000C003FF89
:10046000FFE7FFFFCFFFFF9FFFFF3FFFFE7FFFFC88
:10047000FFFFF9FFFFF0170022003FFFFE7FFFFCA8
:10048000FFFFF9FFFFF3FFFFE7FFFFCFFFFF9FFF36
:10049000FF000CFE0019FFFF33FFFE67FFFFCFFFD9
:1004A000BF9FFC733FE0E67F800CFE0019FC073322
:1004B000F98E67F3DFCFE7FF9FCFF33F9FE67F0023
:1004C0000C00001800FFFFF9FFFFF3FFFFE7FFFF3D
:1004D000CFFFFF9FFFFF3FFFFE7FFFFC15001E00C9
:1004E000FFFFE7FFFF3FFFF9FFFFCFE7FC7F3FC7BD
:1004F000F9FC7FCFC7FE7C7FF3C7FF9C7FFCC7FF63
:10050000E47FFF07FC007FE003FFFE0FFFF23BFFED
:10051000989FFCE07FE783FF380FF9807FCF01FED3
:100520007E0FF3FC3FFFF9FFFFCFFFFE7FFFF015CB
:10053000001E003FFFF9FFFFCFFFFE7FFFF1FF3FEF
:10054000C7F9FF1FCFFC7E7FF1F3FFC79FFF1CFFA2
:10055000FC67FFF13FFFC1FFFF001FFC00FF93FF9F
:10056000F09FFE0CFFC067FC073FF039FF83CFF818
:100570001E7F8DF3F8FF9FCFFFFE7FFFF3FFFF9FEE
:10058000FFFC0F0420080000000000000000000035
:100590000000000000000370F870FF70F80700E032
:1005A00000FC00E0000000E000FC00E00A00113068
:1005B00011C013003D00D13011C013003D00D10027
:1005C0001107607830FC108EF8FF1087F0C3E061EF
:1005D00010007E00FF0081108120FF407E8001001E
:1005E0000200040018E027F04F10881008F00FE018
:1005F000070EE001E003F003307C10FE908FD08FF7
:10060000E0F1E070F0043007300620044000030001
:10061000E000FC00E005E007F81F0C30024001801C
:1006200005018002400C30F81FE007070060006CF5
:1006300000AC00F000AC006C006009000200020099
:10064000020002E03F00020002000200020372000A
:100650007400380005800080008000800080000366
:10066000700070007000053000C001000E007000C6
:100670008008801FE07FF0FF10801080F0FFE07F97
:10068000801F0710201060F07FF07FF0FF10001037
:1006900000091000306070C0B0C030E330FE307C24
:1006A00030384000086020704030C410CE10FFE0A9
:1006B000F7E073C001088003800580098011F07F96
:1006C000F0FFF0FF800108600C707C30DC30DC1043
:1006D000DE10CE20CFC08308C007E01FF03F307887
:1006E000104CF0CFE087C08308006000C000C0302D
:1006F000C0C0C000C700F800C008E070F07910FE6C
:10070000108E108FF08FE0FBC07108103C107E300F
:10071000FF2083E0C1C0FF807F003E03701C701C7F
:10072000701C03721C741C381C0A0004000A000AA6
:10073000000A001100118020802080204040090024
:100740000900090009000900090009000900090061
:10075000090A404080208020802000110011000AFA
:10076000000A000A0004080070007070B070837006
:100770008400FC00F8007011E007180C043002201F
:10078000E241F147F18F119E6190F18FF19F119F2E
:1007900012502260C430081F10000D1000100070AD
:1007A000009003800C803080FC907FF01FF003F0FD
:1007B00000300010000C10801080F0FFF0FFF0FF00
:1007C00010841084108430CEF0FFE07BC0310C80A8
:1007D0000FC03FE07F706030C0108010801080102C
:1007E000801040206040F00D10801080F0FFF0FF7E
:1007F000F0FF10801080108030C06060E07FC03F4C
:10080000800F0C10801080F0FFF0FFF0FF108410BC
:1008100084109F108010C030E0F0000B108010801A
:10082000F0FFF0FFF0FF10841084009F008000C0F4
:1008300000E00E800FC03FE07F607030C01080107D
:100840008010811081F041E061E0F1000100010EB3
:1008500010801080F0FFF0FFF0FF1084000400040F
:100860001084F0FFF0FFF0FF108010800710801060
:1008700080F0FFF0FFF0FF108010800AE000E00041
:10088000D00010801080F0FFE0FFC0FF00800080EB
:100890000E10801080F0FFF0FFF0FF1084108680B3
:1008A0000FD013F0A170A030C0108010800B10800A
:1008B0001080F0FFF0FFF0FF10801080100010009B
:1008C0003000F0001210801080F0FF10C010F00017
:1008D000FE803FE00FF001C0010006103810C0F0AC
:1008E000FFF0FFF0FF108010800E10001080F0FF6E
:1008F00010F01078003C001E000F8007C083E081DC
:10090000F0FF008000800D000FC03FE07F6060308E
:10091000C010801080108030C06060E07FC03F0059
:100920000F0B10801080F0FFF0FFF0FF108210829C
:1009300000C600FE007C00380D800FC03FE07F70D5
:100940006030C018801C801E8036C07260E27FC29A
:100950003F800F0E10801080F0FFF0FFF0FF10823C
:1009600010838083C0C7E0FC707C3038100010001A
:1009700009F039607C20FC108E10861087F043E06F
:10098000F3C0010B00E0008010801080F0FFF0FF4A
:10099000F0FF10801080008000E00D00800080C01B
:1009A000FFE0FFF0FF30801080100010802080C03A
:1009B000FF008000800D008000C000F000FC80BFC0
:1009C000E08FF00360008003008C00B000C0008066
:1009D00013008000C000F000FC00BFE08FF003E0D7
:1009E00080008300EC00F800FFE09FF003E00000CF
:1009F00007009800E000800D1080108030C050F09B
:100A000090F800BF000FD00FF091F0A030C0108020
:100A100010800D008000C000F010F810BEF08FF0C4
:100A200007F0031004109800A000C000800C100014
:100A300030F0F0C0F081D087108F10BE10F810F0A9
:100A400010C03080F00004FFFFFFFF01800180052F
:100A500000C000380007E00010000401800180FFA2
:100A6000FFFFFF0900040018002000400080004044
:100A70000020001800040A0100010001000100012B
:100A8000000100010001000100010003D00A00C0C4
:100A9000006009600EF00EF01690112011F01FF0AA
:100AA0001FF00F1000090080F0FFE0FFE0FF1008CA
:100AB0001010F01FE00FC00707C007E00FF01F3055
:100AC000101010101C200C09C007E00FF01F1010B0
:100AD0002088F0FFF0FFE0FF200007C007E00FF0E4
:100AE0001F3012101E100E2006071010F07FF0FFAE
:100AF000F0FF109000C000C0093607790FB91FB988
:100B000010B910B91F391F3A161C100A1080F0FFD7
:100B1000F0FFF0FF10080010F01FF01FF00F1000A2
:100B2000051010F0DFF0DFF0DF1000060600070010
:100B30000110FFDFFFDFFEDF0B1080F0FFF0FFF0A2
:100B4000FF10018003D013F01C7018301010000546
:100B50001080F0FFF0FFF0FF10000F1010F01FF0FA
:100B60001FF01F10080010F01FF01FF00F100800FA
:100B700010F01FF01FF00F10000A1010F01FF01FF0
:100B8000F01F10080010F01FF01FF00F100008C039
:100B900007E00FF01F10101010F01FE00FC0070942
:100BA0000110FF1FFF1FFF1F21081010F01FE00F93
:100BB000C00709C007E00FF01F10102110FF1FFF32
:100BC0000FFF1F0100081010F01FF01FF01F10088A
:100BD0000010001C001C06700E201F9017D013F090
:100BE00009E01C060010E01FF03FF0FF101020107D
:100BF0000A0010E01FF01FF01F10002010F01FF07F
:100C00001FF01F1000090010001C801FE01FF013D0
:100C100060008013001C00100E0010001C001FE07C
:100C20001FF013E0000017001EE01FF017E00000A7
:100C300017001800100910101010301C501FC01F92
:100C4000F003F014301810100906100718071E8260
:100C50001FEC17F0018013001C0010081000701C1E
:100C6000F010F013901F101F301C70100500018C45
:100C700032FE7E73CC018001FFFF05018073CCFE44
:100C80007E8C3200010A000300040004000400020C
:100C9000000200010001000100060000632711248A
:100CA0001FBECFEFD8E0DEBFCDBF13E0A0E0B1E0C4
:100CB000ECE8F5E702C005900D92AE32B107D9F726
:100CC00026E0AEE2B3E001C01D92AF39B207E1F712
:100CD00016E0CFE4D6E004C02197FE010E948739D8
:100CE000CE34D107C9F70E94B1270C94C43A0C94B2
:100CF00000000895089581E080937E050895AF92E5
:100D0000BF92CF92DF92EF92FF920F931F93CF93F8
:100D1000DF936C017B018B01040F151FEB015E015A
:100D2000AE18BF08C017D10759F06991D601ED91EF
:100D3000FC910190F081E02DC6010995892B79F78E
:100D4000C501DF91CF911F910F91FF90EF90DF9040
:100D5000CF90BF90AF900895FC01538D448D252F07
:100D600030E0842F90E0821B930B541710F0CF9645
:100D7000089501970895FC01918D828D981761F077
:100D8000A28DAE0FBF2FB11D5D968C91928D9F5F8E
:100D90009F73928F90E008958FEF9FEF0895FC016D
:100DA000918D828D981731F0828DE80FF11D858D20
:100DB00090E008958FEF9FEF0895FC01918D228DB3
:100DC000892F90E0805C9F4F821B91098F73992738
:100DD000089586EE95E00E94DD0621E0892B09F456
:100DE00020E0822F089580E090E0892B29F00E9476
:100DF000E90681110C9400000895FC01A48DA80F50
:100E0000B92FB11DA35ABF4F2C91848D90E001964C
:100E10008F739927848FA689B7892C93A089B1896C
:100E20008C91837080648C93938D848D981306C00D
:100E30000288F389E02D80818F7D80830895EF9271
:100E4000FF920F931F93CF93DF93EC0181E0888F84
:100E50009B8D8C8D98131AC0E889F989808185FF54
:100E600015C09FB7F894EE89FF896083E889F989F6
:100E700080818370806480839FBF81E090E0DF91F8
:100E8000CF911F910F91FF90EF900895F62E0B8D4B
:100E900010E00F5F1F4F0F731127E02E8C8D8E1106
:100EA0000CC00FB607FCFACFE889F989808185FF6D
:100EB000F5CFCE010E94FD06F1CFEB8DEC0FFD2F9B
:100EC000F11DE35AFF4FF0829FB7F8940B8FEA8928
:100ED000FB8980818062CFCFCF93DF93EC01888D37
:100EE0008823B9F0AA89BB89E889F9898C9185FDA5
:100EF00003C0808186FD0DC00FB607FCF7CF8C9133
:100F000085FFF2CF808185FFEDCFCE010E94FD06E7
:100F1000E9CFDF91CF910895833081F028F48130BB
:100F200099F08230A9F008958730A9F08830C9F08F
:100F30008430B1F4809180008F7D03C08091800067
:100F40008F7780938000089584B58F7784BD08954E
:100F500084B58F7DFBCF8091B0008F778093B000F8
:100F600008958091B0008F7DF9CFCF93DF93282F24
:100F700030E0F901EA5EFE4F8491F901EE5FFE4F29
:100F8000D491F901E251FF4FC491CC23A1F081111A
:100F90000E948C07EC2FF0E0EE0FFF1FEC51FF4F8B
:100FA000A591B491EC91ED2381E090E009F480E00B
:100FB000DF91CF91089580E090E0FACF1F93CF9317
:100FC000DF93282F30E0F901EA5EFE4F8491F901AA
:100FD000EE5FFE4FD491F901E251FF4FC491CC2353
:100FE000A9F0162F81110E948C07EC2FF0E0EE0F74
:100FF000FF1FE652FF4FA591B4918FB7F894EC9183
:10100000111108C0D095DE23DC938FBFDF91CF9103
:101010001F910895DE2BF8CFCF93DF9390E0FC0172
:10102000EE5FFE4F249182519F4FFC0184918823F3
:10103000D1F090E0880F991FFC01E053FF4FA5917C
:10104000B491FC01E652FF4FC591D491623071F426
:101050009FB7F8943C91822F809583238C93E881ED
:101060002E2B28839FBFDF91CF9108958FB7F894DF
:10107000EC912E2B2C938FBFF6CF8230910538F058
:10108000880F991F880F991F05970197F1F7089509
:101090003FB7F8948091340590913505A0913605BD
:1010A000B091370526B5A89B05C02F3F19F00196D2
:1010B000A11DB11D3FBFBA2FA92F982F8827BC01B2
:1010C000CD01620F711D811D911D42E0660F771FDA
:1010D000881F991F4A95D1F708958F929F92AF92DA
:1010E000BF92CF92DF92EF92FF926B017C010E9440
:1010F00048084B015C01C114D104E104F104B9F0CA
:101100000E944808681979098A099B09683E73405A
:101110008105910580F321E0C21AD108E108F108A8
:1011200088EE880E83E0981EA11CB11CE4CFFF90CE
:10113000EF90DF90CF90BF90AF909F908F900895E9
:10114000089520910C05260F3327331F21323105D6
:10115000ECF42091BC05FC0190E080E0243069F0C3
:1011600082E00895A0910C052191AC0144515B4FA0
:10117000A40FB52FB11D2C930196861798F380917B
:101180000C05680F60930C0580E0089581E00895D8
:101190001092BC0581E08093BB051092960561E03A
:1011A00082E10E94DE0761E083E10E94DE07E9EB55
:1011B000F0E080818E7F808380818D7F808388E4D2
:1011C0008093B80085E48093BC00089510928E054A
:1011D00010928D051092C3051092E5050E94C80873
:1011E00089E796E090938C0580938B058AE796E0DB
:1011F00090938A05809389050895CF93DF9391E0BA
:101200009093EB048823B9F0C091B800D091BA0054
:101210008091BC008A7B8093BC0060E082E10E94E8
:10122000DE0760E083E10E94DE070E94C808D093D9
:10123000BA00C093B800DF91CF9108958F929F922A
:10124000AF92BF92CF92DF92EF92FF920F931F93D4
:10125000CF93DF93D091E505D13208F0D7C0182F96
:10126000C091E4050E9448086B017C018091BC0597
:1012700081116BC082E08093BC051093BB058FEF9A
:101280008093BA051092B905D093B805A4ECB5E0E7
:10129000E8E9F5E080E0D81391C0109297058091BD
:1012A0009705CC0FC82BC093970580919605813088
:1012B00009F088C0109296050E9448086B017C01D5
:1012C000809197058093BB008091BE059091BF05EA
:1012D000A091C005B091C105892B8A2B8B2BA1F061
:1012E0000E9448080091BE051091BF052091C005DD
:1012F0003091C1056C197D098E099F0906171707E2
:101300002807390708F442C08091BC0083FDD8CF7C
:1013100085EC8093BC000E9448086B017C018091A1
:10132000BC05823009F450C08091BA058F3F09F4A2
:101330006FC08091BA05803209F46CC08091BA0503
:10134000803309F469C084E026C08091BE05909185
:10135000BF05A091C005B091C105892B8A2B8B2BAD
:1013600009F484CF0E9448088090BE059090BF0584
:10137000A090C005B090C1056C197D098E099F0928
:1013800086169706A806B90608F070CF8091BD05AD
:101390000E94FD0885E01092C3051092E5051092A9
:1013A000C205DF91CF911F910F91FF90EF90DF90D9
:1013B000CF90BF90AF909F908F9008959D91919303
:1013C0008F5F69CF85EEA5CF8091BE059091BF0557
:1013D000A091C005B091C105892B8A2B8B2B09F4F4
:1013E0009ECF0E9448080091BE051091BF05209134
:1013F000C0053091C1056C197D098E099F0906173A
:1014000017072807390708F08ACFC0CF81E0C3CF7C
:1014100080E0C1CF82E0BFCF83E0BDCFCF93DF9329
:10142000EC018B818823A1F0888191E09093C20523
:101430008093E4051092C3051092E50581E00E94B7
:101440001E0991E0811190E0892FDF91CF910895DD
:101450000E94E60881E08B83CE010E940E0A982F3D
:101460008111E2CFF1CF0895E0918E0580918D0535
:10147000E81730F4F0E0E553FB4F808190E00895E9
:101480008FEF9FEF089590918E0580918D052FEF3E
:101490003FEF981748F4E92FF0E0E553FB4F208128
:1014A00030E09F5F90938E05C901089580918D056E
:1014B00090918E05891B990B0895CF92DF92EF9240
:1014C000FF920F931F93CF93DF937C01CB018A018F
:1014D0002091C205222389F0EB016B01C40ED51EB9
:1014E000CC15DD0569F06991D701ED91FC91019072
:1014F000F081E02DC7010995F3CF642F0E94A10868
:10150000C801DF91CF911F910F91FF90EF90DF9075
:10151000CF900895CF93DF931F92CDB7DEB7698345
:101520002091C2052223F9F02091E505203258F0E0
:1015300021E030E0FC013383228390E080E00F90D3
:10154000DF91CF9108958091C305E82FF0E0EC532F
:10155000FA4F998190838F5F8093C3058093E5054F
:1015600081E090E0ECCF61E0CE0101960E94A108FD
:10157000F7CF90E080E00895CF93CFB7F8948091B3
:10158000CA04811127C0E8EFF0E08491ECE0F1E0BB
:101590009491E82FF0E0EE0FFF1FE053FF4FA5916D
:1015A000B491EC91E92321F461E08AE00E94DE0726
:1015B00061E08AE00E940C088CB580618CBD8CB51E
:1015C00080648CBD61E08DE00E940C0861E08BE0DE
:1015D0000E940C088091CA048F5F8093CA04CFBF19
:1015E000CF9108959CB5209138052CBD8EBD00008B
:1015F0000DB407FEFDCF9CBD089580914205882360
:1016000009F482C060E0809107010E94DE0760E07B
:10161000809108010E94DE078AE28EBD0096009646
:10162000009601D001C0089561E0809107010E94F9
:10163000DE071EBC00000096009601D001C0089590
:1016400010923E0510923D051EBC0000009601D090
:1016500001C00895809121019091220101979093FA
:101660003C0580933B059EBD00960096009601D0F8
:1016700001C0089580913B058EBD00000096009644
:1016800001D001C0089560E0809107010E94DE074B
:101690008BE28EBD00960096009601D001C00895A1
:1016A00061E0809107010E94DE071EBC00000096E9
:1016B000009601D001C008951092400510923F0598
:1016C0001EBC0000009601D001C008958091230146
:1016D00090912401019790933A05809339059EBD1E
:1016E00000960096009601D001C0089580913905BA
:1016F0008EBD00000096009601D001C0089561E003
:10170000809108010C94DE0708950CB405FC0DC00F
:101710009EBD00000DB407FEFDCF9EB58EBD00003E
:101720000DB407FEFDCF8EB508958EBD00000DB43B
:1017300007FEFDCF8EB59EBD00000DB407FEFDCFA8
:101740009EB508958EBD00000DB407FEFDCF8EB589
:101750000895EF92FF920F931F93CF93DF938C0125
:101760008FE8E82E86E0F82E60E0F70180810E9485
:10177000DE07F701C281D381D0611F70C02BD12B4E
:101780008D2F0E94A20B8C2F0E94A20B61E0F7010B
:101790008081DF91CF911F910F91FF90EF900C947A
:1017A000DE07EF92FF920F931F93CF93DF938C018D
:1017B0008FE8E82E86E0F82E60E0F70180810E9435
:1017C000DE07F701C481D581D0691F70C02BD12BF2
:1017D0008D2F0E94A20B8C2F0E94A20B61E0F701BB
:1017E0008081DF91CF911F910F91FF90EF900C942A
:1017F000DE07CF93DF93D82F61E0809107010E942D
:10180000DE07C091080160E08C2F0E94DE07809106
:101810004205882349F08D2F0E94F20A61E08C2F47
:10182000DF91CF910C94DE078D2F0E94A20BF6CF93
:10183000CF93DF93D82F60E0809107010E94DE07ED
:10184000C091080160E08C2F0E94DE078091420564
:10185000882349F08D2F0E94F20A61E08C2FDF91DE
:10186000CF910C94DE078D2F0E94A20BF6CFAF9282
:10187000BF92CF92DF92EF92FF920F931F93CF937D
:10188000DF93B82EA92ED62EC72E8A01E901E0904B
:101890000801F090070180914205882309F499C05E
:1018A00060E08F2D0E94DE0760E08E2D0E94DE0733
:1018B0008AE28EBD00960096009601D001C0089580
:1018C00061E0809107010E94DE07AEBC0000009637
:1018D00001D001C008958FEF9FEF90933E05809354
:1018E0003D05BEBC0000009601D001C00895809166
:1018F0003B0590913C058017910791F01EBD0000BB
:10190000009601D001C00895000010933C0500939B
:101910003B050EBD00000096009601D001C0089561
:1019200060E0809107010E94DE078BE28EBD009689
:101930000096009601D001C0089561E080910701F2
:101940000E94DE07CEBC0000009601D001C00895C1
:101950008FEF9FEF9093400580933F05DEBC000022
:10196000009601D001C008958091390590913A0503
:101970008C179D0791F0DEBD0000009601D001C0DC
:1019800008950000D0933A05C0933905CEBD0000FC
:101990000096009601D001C0089560E08091070193
:1019A0000E94DE078CE28EBD00000096009601D0FA
:1019B00001C0089561E080910701DF91CF911F91EF
:1019C0000F91FF90EF90DF90CF90BF90AF900C946D
:1019D000DE078AE20E94180C8A2D0E94F90B8B2DDB
:1019E0000E94F90B812F0E94F90B802F0E94F90BA6
:1019F0008BE20E94180C8C2D0E94F90B8D2D0E94F9
:101A0000F90B8D2F0E94F90B8C2F0E94F90B8CE2A1
:101A10000E94180C60E08E2D0E94DE0761E08F2D81
:101A2000CCCFCF92DF92EF92FF920F931F93CF9381
:101A3000DF936A01E90121503109260F371F415018
:101A40005109480F591F0E94370C219708F1760160
:101A500080914205882391F0C601009771F01EBD68
:101A600002D001D001C0089500000EBD009600967E
:101A700001D001C00895019791F7E7CF1E141F040C
:101A800024F7C8010E94850B81E0E81AF108F6CF1F
:101A900061E080910801DF91CF911F910F91FF903C
:101AA000EF90DF90CF900C94DE070F931F9320915F
:101AB000230130912401409121015091220110E035
:101AC00000E070E060E090E080E00E94110D1F9166
:101AD0000F910895EF92FF920F931F93CF93DF938F
:101AE000EA01122F032F41505109480F591F9B0142
:101AF0000E94370C7E01809142058823D9F02097FF
:101B000071F00EBD02D001D001C0089500001EBDCD
:101B10000096009601D001C00895219791F761E0E9
:101B200080910801DF91CF911F910F91FF90EF906D
:101B30000C94DE071E141F0494F7812F902F0E942F
:101B4000850B81E0E81AF108F5CF2F923F924F9272
:101B50005F926F927F928F929F92AF92BF92CF923D
:101B6000DF92EF92FF920F931F93CF93DF93CDB746
:101B7000DEB76E970FB6F894DEBF0FBECDBF9C8B5D
:101B80008B8B78876F835A8349833E8F2D8F1A877B
:101B90000987449F9001459F300D300D11243C83EF
:101BA0002B838D8D9E8D889FA001899F500D500D98
:101BB00011245E834D83032E000C440B550B2B87A1
:101BC0003C874D875E8772E0220F331F441F551FED
:101BD0007A95D1F72F87388B498B5A8B4D815E814F
:101BE0002A01052E000C66087708D301C201E2E045
:101BF000880F991FAA1FBB1FEA95D1F78D8B9E8B6B
:101C0000AF8BB88F8D8D9E8D880F991F21E030E0AE
:101C1000281B390BAB81BC810E943F3993018201A3
:101C2000000F111F221F331F6B017C01C00ED11E3C
:101C3000E21EF31E2B883C8826E030E0DA010E9489
:101C40005639698F7A8F8B8F9C8F01E010E0812C41
:101C5000912C54012B813C81AD8DBE8D0E943F396A
:101C6000681579058A059B050CF44AC029853A85D3
:101C7000A8016F8178856A1B7B0BC1010E946A0DE8
:101C800029853A85A8016F817885AD8DBE8D6A0F53
:101C90007B1FC1010E946A0DF7FC13C0A1E0B0E0F8
:101CA000ED8DFE8DAE1BBF0B2F85388949895A8972
:101CB0000E945D39C60ED71EE81EF91E3197FE8FB1
:101CC000ED8FD501C40162E0880F991FAA1FBB1FC9
:101CD0006A95D1F7298D3A8D4B8D5C8D820F931FBC
:101CE000A41FB51FC80ED91EEA1EFB1E840C951C2E
:101CF000A61CB71C31E0231A31080E5F1F4FAACF74
:101D000089819A81880F991F21E030E0281B390BC7
:101D1000AD81BE810E943F390B851C852D853E8596
:101D2000000F111F221F331F6B017C01C00ED11E3B
:101D3000E21EF31E26E030E0AB81BC810E945639E2
:101D40004B015C01412C512C3201312C212C2D8175
:101D50003E81A981BA810E943F39641575058605C7
:101D600097050CF451C08D01000F111F0F5F1F4F1D
:101D700029853A85A8016F817885621973098B8955
:101D80009C898A1B9B0B9C838B830E946A0D2985EF
:101D90003A85A8016F817885620D731D8B819C81C6
:101DA0000E946A0DF7FC13C0A1E0B0E0E981FA815E
:101DB000AE1BBF0B2D893E894F89588D0E945D391E
:101DC000C60ED71EE81EF91E3197FA83E983D301A8
:101DD000C20122E0880F991FAA1FBB1F2A95D1F7C5
:101DE000880D991DAA1DBB1DC80ED91EEA1EFB1E1B
:101DF000FFEF2F1A3F0A2B853C854D855E85420EED
:101E0000531E641E751EA3CF6E960FB6F894DEBFE8
:101E10000FBECDBFDF91CF911F910F91FF90EF903B
:101E2000DF90CF90BF90AF909F908F907F906F90FA
:101E30005F904F903F902F900895EF92FF920F93F5
:101E40001F93CF93DF9320912101309122018217BC
:101E5000930708F0BCC02091230130912401621740
:101E6000730708F0B4C08A017B01EC0160E0809147
:101E700008010E94DE0780914205882309F49DC075
:101E800080913D0590913E05C817D90709F42DC0F2
:101E900060E0809107010E94DE078AE28EBD0000AB
:101EA000009601D001C00895D0933E05C0933D0532
:101EB00061E0809107010E94DE07DEBD02D001D003
:101EC00001C008950000CEBD02D001D001C0089528
:101ED0000000DEBD02D001D001C008950000CEBDDB
:101EE0000000009601D001C0089580913F059091B7
:101EF0004005E816F90609F42EC060E0809107015C
:101F00000E94DE078BE28EBD0000009601D001C06A
:101F10000895F0924005E0923F0561E0809107014D
:101F20000E94DE07FEBC02D001D001C0089500006F
:101F3000EEBC02D001D001C008950000FEBC02D06A
:101F400001D001C008950000EEBC0000009600968C
:101F500001D001C0089560E0809107010E94DE0772
:101F60008CE28EBD00960096009601D001C00895C7
:101F700061E0809107010E94DE071EBD0096009679
:101F8000009601D001C00895D0933C05C0933B0555
:101F90000EBD0000009601D001C00895F0923A05F0
:101FA000E092390561E080910801DF91CF911F91A6
:101FB0000F91FF90EF900C94DE079701AE01B701EF
:101FC000CE010E94370CC8010E94850BEBCFDF9138
:101FD000CF911F910F91FF90EF9008953F924F92F4
:101FE0005F926F927F928F929F92AF92BF92CF92A9
:101FF000DF92EF92FF920F931F93CF93DF935A01DB
:10200000FB0134903196E49031969491891708F44D
:102010006FC0319633E08917C1F02491222309F46F
:1020200067C0622F70E031964FE0431530F4239F74
:10203000E00DF11D11248150EECF27E0231510F49F
:10204000660F771FE60FF71FF6CF049110E0BF0170
:102050006F5F7F4F832C912CF12C0115110509F432
:102060003EC0FB014490512C712C612CEB01219658
:10207000F7E0F31568F4FE01C4915C2AEB012296A7
:10208000FFE0F31528F4FE01C4916C2AEB012396BE
:10209000D12CC12C80918705909188058C149D04CA
:1020A000A8F040FE0BC060918505709186056E0D0D
:1020B0007F1D6C197D09A5010E941D0F7694679400
:1020C00057944794FFEFCF1ADF0AE4CF019690931D
:1020D00088058093870501501109BE01BECF80910C
:1020E00087059091880501969093880580938705D0
:1020F000DF91CF911F910F91FF90EF90DF90CF90E4
:10210000BF90AF909F908F907F906F905F904F9017
:102110003F9008958F929F92AF92BF92CF92DF929D
:10212000EF92FF920F931F93CF93DF93EC017B010C
:102130006A0197FF3AC0D195C195D1098DE20E94FD
:10214000EE0F85E0882E912C00E117E220E09AE066
:10215000A92EB12CC017D10714F4222359F0CE01B7
:10216000B8010E940C39862FA601B701805D0E943C
:10217000EE0F21E0CE01B8010E940C39EC01C8013C
:10218000B5010E940C398B0181E0881A910811F782
:10219000DF91CF911F910F91FF90EF90DF90CF9043
:1021A000BF90AF909F908F900895892B51F680E358
:1021B000DF91CF911F910F91FF90EF90DF90CF9023
:1021C000BF90AF909F908F900C94EE0FEF92FF9284
:1021D0000F931F93CF93DF938B017A01EC018991C9
:1021E000882329F0A701B8010E94EE0FF8CFDF91F4
:1021F000CF911F910F91FF90EF9008952F923F92F2
:102200004F925F926F927F928F929F92AF92BF9206
:10221000CF92DF92EF92FF920F931F93CF93DF93B2
:1022200000D000D0CDB7DEB77A0118016C01C41A16
:10223000D50A4817590718F06A01C81AD90A26178B
:10224000370768F45B01A21AB30ACA14DB044CF125
:10225000E816F90608F442C0712C612C19C0590126
:10226000A61AB70ACA14DB040CF044C05C2D4D2D2D
:102270006501A52EB42E5E2D4F2D7901252F342F0B
:10228000582F492FCB01652F742F66246394712C2E
:1022900046019594879462177307D8F521E030E0E2
:1022A0003AC05C2D4D2D6501A52EB42E562F472F1B
:1022B000B701E52EF42E582F492FC901252F342FB1
:1022C000E4CFA101B2018B819C816114710419F0EA
:1022D0006B817C81C2010E941D0F38C0460195941C
:1022E0008794B901382F292FC701E32EF22E712CC4
:1022F000612CD4CFE816F90608F0AECF46019594CC
:102300008794B901382F292FC701E32EF22E712CA3
:10231000612C2FEF3FEF3A8329832B019C838B8322
:102320008B819C81E816F906F8F04091200142303B
:1023300040F24150550B81019A01B20161147104C0
:1023400019F06B817C81C2010E94A50D8A189B083F
:1023500097FE06C029813A81420E531E8C0C9D1CAB
:102360008B819C810196DACF0F900F900F900F9088
:10237000DF91CF911F910F91FF90EF90DF90CF9061
:10238000BF90AF909F908F907F906F905F904F9095
:102390003F902F900895EF92FF920F931F93CF934A
:1023A000DF937C01EB0182E08093200110E000E0EC
:1023B0009B0142E350E0B7018CE190E00E94FE10E7
:1023C000970142E350E0BE018CE190E00E94FE10D4
:1023D00081E080932001DF91CF911F910F91FF90B9
:1023E000EF9008950F931F93E0912001E23058F091
:1023F000890141505109480F591F9B010E94FE104D
:102400001F910F9108951F910F910C946A0DEF92F7
:10241000FF920F931F93CF93DF93EA0189019A01F3
:1024200021503109260F371F40912001423050F0D2
:10243000AC010E94FE10DF91CF911F910F91FF9090
:10244000EF900895AC010E94370C7E018091420507
:102450008823D9F0209771F01EBD02D001D001C0B1
:10246000089500000EBD0096009601D001C00895A9
:10247000219791F761E080910801DF91CF911F9141
:102480000F91FF90EF900C94DE071E141F0494F739
:10249000C8010E94850B81E0E81AF108F6CFAF92DF
:1024A000BF92CF92DF92EF92FF920F931F93CF9341
:1024B000DF937C016B01EA01590198010E94F2113E
:1024C000B501615071096C0D7D1D9801AE01C70108
:1024D0000E94F2119801A501B601C7010E940712DE
:1024E000CE0101979801A501B6018E0D9F1DDF91C8
:1024F000CF911F910F91FF90EF90DF90CF90BF9001
:10250000AF900C940712AF92BF92CF92DF92FF92DE
:102510000F931F93CF93DF93EC01F62E6A015901BD
:1025200000E114E822E230E042E250E061E070E0D5
:102530000E94110D0FEF1FEF22E230E042E250E067
:1025400061E070E0CE010E944F1285012EE130E083
:102550004EE150E063E070E0CE0102960E94110D62
:102560002B96D0938805C093870587E190E09093E0
:10257000860580938505A60162E875E08F2DDF91C1
:10258000CF911F910F91FF90DF90CF90BF90AF90B0
:102590000C94EE0FEF92FF920F931F93CF93DF9364
:1025A00020914205222309F495C020912101309108
:1025B00022018217930708F095C0209123013091E2
:1025C00024016217730708F08DC07A018B01EC01BA
:1025D00060E0809108010E94DE0780913D059091A6
:1025E0003E05C817D90711F160E0809107010E94EC
:1025F000DE078AE28EBD00000096009601D001C081
:102600000895D0933E05C0933D0561E08091070198
:102610000E94DE07DEBD02D001D001C00895000097
:10262000CEBD0000009601D001C0089580913F0505
:10263000909140050817190719F160E08091070192
:102640000E94DE078BE28EBD00000096009601D04E
:1026500001C008951093400500933F0561E080910B
:1026600007010E94DE071EBD02D001D001C00895FF
:1026700000000EBD00000096009601D001C0089534
:1026800060E0809107010E94DE078CE28EBD00961B
:102690000096009601D001C0089561E08091070185
:1026A0000E94DE07FEBC02D001D001C008950000E8
:1026B000EEBC00000096009601D001C0089561E0D4
:1026C00080910801DF91CF911F910F91FF90EF90C2
:1026D0000C94DE07DF91CF911F910F91FF90EF9047
:1026E0000C941D0FDF91CF911F910F91FF90EF90F0
:1026F00008952F923F924F925F926F927F928F92A6
:102700009F92AF92BF92CF92DF92EF92FF920F9380
:102710001F93CF93DF9300D000D0CDB7DEB74C012D
:102720005B011901FA0184919A012F5F3F4FF90172
:1027300064913A01F2E06F0E711C8A010C5F1F4F29
:10274000CA010396FA0167FF4AC0449150E0F901BB
:102750002491522B9A013F773A832983F3016490A5
:10276000712CFC018491782A0E94FD0A7501552480
:1027700053941C821B8244244394C7018A199B09E9
:10278000861597050CF079C0D12CC12C29813A818E
:102790002C153D0501F1F8018F014B815C81452B22
:1027A00041F45491852F90E09C838B83542431967F
:1027B000F3CF511007C0A101B701C4018C0D9D1DBD
:1027C0000E94CA12EB81FC813197FC83EB83FFEFFF
:1027D000CF1ADF0ADBCF2FEFE21AF20ACECFF49145
:1027E0004F2F50E0F9012491522B5C834B83F3016E
:1027F0006490712CFC0184919301382B3A832983D6
:102800000E94FD0A6501712C612CC6018A199B0981
:1028100049815A818417950784F5F12CE12C8B812D
:102820009C81E816F906ECF4C3018E0D9F1D87709C
:102830009927892B39F4C8010196F8010491402E9B
:10284000512C8C0147FC07C0A101B601C4018E0DBB
:102850009F1D0E94CA12440C551CFFEFEF1AFF0A7D
:10286000DECF8B819C8197FF02C090E080E0680EF4
:10287000791E2FEFC21AD20AC8CF0F900F900F9077
:102880000F90DF91CF911F910F91FF90EF90DF900C
:10289000CF90BF90AF909F908F907F906F905F9000
:1028A0004F903F902F9008957F928F929F92AF927A
:1028B000BF92CF92DF92EF92FF920F931F93CF932D
:1028C000DF93EC015B01742E490168010FEF1FEFEC
:1028D0002FE430E04FE450E0BC0190E080E00E9443
:1028E0004F12BE016E5F7F4F84012BE430E04BE45A
:1028F00050E082E090E00E94110DBE016F5F7F4FBB
:1029000010E000E02DE430E04DE450E081E090E0A4
:102910000E944F1282E0809320014E0182E3880ED4
:10292000911C27E130E047E150E0B4018CE190E0F8
:102930000E944F1281E080932001BE016C5C7F4FAA
:102940000FEF1FEF23E130E043E150E08EE190E034
:102950000E94110D772031F0BE01685B7F4FC401EA
:102960000E94CB1183E090E0C035D10511F08BE0DF
:1029700090E09093880580938705CE0142969093CE
:1029800086058093850550E040E062E875E0C5016A
:102990000E94E610669630E020E0A601BE0188E0C5
:1029A00090E00E94791330E020E0A701BE018FE2A1
:1029B00090E0DF91CF911F910F91FF90EF90DF900A
:1029C000CF90BF90AF909F908F907F900C94791391
:1029D000CF92DF92EF92FF920F931F93CF93DF93EB
:1029E000E80100916705109168050E94110D409162
:1029F000180150911901D0938805C0938705F09272
:102A00008605E092850562E875E0C601DF91CF9109
:102A10001F910F91FF90EF90DF90CF900C948A1050
:102A20000F931F93A62F282F30E0F901EE0FFF1F01
:102A3000E859FE4F80819181909315018093140194
:102A4000F901EE0FFF1FE458FE4F60817181709312
:102A5000170160931601F901EE0FFF1FE057FE4FBB
:102A6000408151815093110140931001220F331F77
:102A7000F901EC5AFE4F20813181309313012093EC
:102A800012010FEF17E0A13041F000E018EFA23083
:102A900021F0A33021F400EE1FEF0E944F121F918E
:102AA0000F9108952F923F924F925F926F927F9273
:102AB0008F929F92AF92BF92CF92DF92EF92FF924E
:102AC0000F931F93CF93DF93CDB7DEB765970FB604
:102AD000F894DEBF0FBECDBF8983782E2CEF720E27
:102AE000843009F001C1209071053090720526E90B
:102AF00030E03D8B2C8B60E00E941015A0901201FD
:102B0000B0901301C50104979B838A832091100123
:102B1000309111013D832C832F5F3F4F3D872C87E0
:102B2000E0901601F0901701470132E0830E911CEE
:102B30004090140150901501C20189979F878E879C
:102B400010E000E02A813B814C855D85B4010E9444
:102B5000110D272D770C330B398B288BF901EE0FD4
:102B6000FF1FEC55FE4F808191819701225F3F4FFF
:102B70003B8B2A8B28E530E030938805209387052E
:102B80002A893B8930938605209385054FEF5FEFB7
:102B900062E875E00E94E6105092C9044092C804B1
:102BA000F092C704E092C6046C807D8034E0631A22
:102BB00071087092C5046092C40483E0A81AB10839
:102BC000B092C304A092C2049701205F3F4F3F839D
:102BD0002E83C20105969987888792012F5F3F4F08
:102BE0003B872A87C0906505D0906605EE80FF8000
:102BF0008C019501A301B4018A859B850E94E8148C
:102C000080917F059091800590931D0180931C0118
:102C10006AE070E080E090E00E946D0880917E059F
:102C2000813009F08EC039813A300CF4E8C008E0F8
:102C300012E42A813B814C855D85B4018E859F8598
:102C40000E94110D4C815D814A5051092A813B81BE
:102C5000B401C20102960E94110DE889F989EE0FB4
:102C6000FF1FE256FE4F8081918128E530E03093CE
:102C70008805209387052A893B8930938605209310
:102C800085054FEF5FEF62E875E00E94E610C090A7
:102C90006305D0906405EE80FF8008851985950155
:102CA000A301B4018A859B850E94E8146EE170E05F
:102CB00080E090E065960FB6F894DEBF0FBECDBF02
:102CC000DF91CF911F910F91FF90EF90DF90CF9008
:102CD000BF90AF909F908F907F906F905F904F903C
:102CE0003F902F900C946D08398120906F053090A3
:102CF000700586E990E0353009F47EC09981963000
:102D000079F420901A0130901B0180917505823072
:102D100008F470C028EE33E03D8B2C8B8981EBCE1C
:102D2000398189813A302CF0832F8650732E99EFA8
:102D3000790E26E930E03D8B2C8B22242394312C14
:102D4000DACE20917F053091800580911C01909111
:102D50001D012817390709F45BCF40917F05509179
:102D6000800520911C0130911D0180916505909195
:102D7000660524173507DCF5820D931D90936605D3
:102D80008093650580916505909166052C893D8944
:102D90002817390724F43093660520936505809140
:102DA00065059091660597FF04C010926605109224
:102DB0006505C0906505D0906605EE80FF800885AA
:102DC00019859501A301B4018A859B850E94E814A9
:102DD00080917F059091800590931D0180931C0147
:102DE0006EE170E080E090E00E946D0811CF8219E2
:102DF0009309C4CF84EF91E09D8B8C8B8FCF659628
:102E00000FB6F894DEBF0FBECDBFDF91CF911F91FB
:102E10000F91FF90EF90DF90CF90BF90AF909F9079
:102E20008F907F906F905F904F903F902F9008957C
:102E30002F923F924F925F926F927F928F929F92CA
:102E4000AF92BF92CF92DF92EF92FF920F931F93B8
:102E5000CF93DF9300D000D0CDB7DEB760E087E03E
:102E60000E9410154090160150901701320120E188
:102E7000620E711C2090140130901501410185E013
:102E8000880E911CA0901201B090130193E0A91A32
:102E9000B108809110019091110104979C838B835C
:102EA00092E0490E511C2FEF221A320AC0900F01F6
:102EB000D12C7301840195014B815C81B201C10168
:102EC0000E94E814809175058983843058F0C09081
:102ED0006D05D0906E0595014B815C81B201C101F9
:102EE0000E94E81460E088E00E94101590910E01A5
:102EF0009A834090160150901701320120E1620E32
:102F0000711C2090140130901501410185E0880E5C
:102F1000911CA0901201B090130193E0A91AB1087E
:102F2000809110019091110102979C838B8392E014
:102F3000490E511C2FEF221A320A8A81C82ED12C39
:102F40007301840195014B815C81B201C1010E9432
:102F5000E8149981943010F1C0906B05D0906C0505
:102F600095014B815C81B201C1010E94E8140F9070
:102F70000F900F900F90DF91CF911F910F91FF90C5
:102F8000EF90DF90CF90BF90AF909F908F907F9009
:102F90006F905F904F903F902F9008952A81622FFD
:102FA00070E090E080E00E94C8379B01AC0160E0D7
:102FB00070E080E793E40E94203760930A017093E9
:102FC0000B0180930C0190930D01D1CF8F929F92B2
:102FD000AF92BF92CF92DF92EF92FF920F931F9327
:102FE000CF93DF93D82FC62F8090120190901301BA
:102FF000A0901001B0901101C0901601D09017015F
:10300000E0901401F090150110E000E09401A5019A
:10301000B601C7010E944F128AEF8C0F8230C8F4AC
:103020000FEF17E0C63011F000E018EF9401A50192
:10303000B601C7010E944F12DF91CF911F910F91EE
:10304000FF90EF90DF90CF90BF90AF909F908F90C8
:1030500008958D2FC43061F481E08D0F90917E052D
:10306000913011F410927E05C1E08A3008F081E0C1
:10307000DA3010F08AEF8D0F6C2FDF91CF911F9116
:103080000F91FF90EF90DF90CF90BF90AF909F9007
:103090008F900C941015CF93DF93D82FC0E08091C0
:1030A000760567E00E94E61762E370E080E090E05A
:1030B0000E946D088091760561E00E94E61762E348
:1030C00070E080E090E00E946D0880917E05813084
:1030D00019F0CF5FDC13E3CF809176051816F4F674
:1030E00080917E05DF91CF910895EF92FF920F932B
:1030F0001F93CF93DF937C01EB018A0180EE91E077
:103100009093010180930001452BD1F11092570556
:103110001092B9041092BA041092BB041092BC042D
:1031200060910F0170E090E080E00E94C8379B0141
:10313000AC0168EF73E583EA9EE30E942037609359
:10314000B5047093B6048093B7049093B8041093B9
:103150005F0500935E05F0926105E0926005D093F3
:103160005D05C0935C051092B4041092B3041092F4
:103170004705DF91CF911F910F91FF90EF90089538
:1031800081E0809357057093010160930001072E41
:10319000000C880B990B0E94CA3720E030E040E217
:1031A00051E40E9420376093BD047093BE04809365
:1031B000BF049093C004ACCF10924F0310924E0303
:1031C0001092AC041092450320915C03263479F4EC
:1031D00080910F01813029F480934E038093AC04D9
:1031E0000895833068F081E080934F03089502973B
:1031F00039F480910F01882319F081E08093450311
:10320000089521E020936205853091055CF40496D1
:1032100090936A0580936905059734F48EE4809352
:10322000090108950497F4CF80E5F9CF6F927F925A
:103230008F929F92AF92BF92CF92DF92FF920F93A5
:103240001F93CF93DF9300D000D000D0CDB7DEB76F
:103250005C0186E0EBE2F1E0DE01119601900D9257
:103260008A95E1F710927E0588E1882E912C96E4EC
:10327000692E712C80917E05811132C0CE0101969C
:103280006C01F12C10E000E022E130E044E650E077
:103290006AE370E087E190E00E94110DF6018191F0
:1032A00091916F01909288058092870570928605B2
:1032B000609285054FEF5FEF62E875E00E94E610CF
:1032C00060EB74E080E090E00E946D0880917E05E4
:1032D0008130B1F510927E05F11016C0809347053C
:1032E00026960FB6F894DEBF0FBECDBFDF91CF910B
:1032F0001F910F91FF90DF90CF90BF90AF909F9064
:103300008F907F906F900895F1E0FF1203C0F092CC
:103310005405E6CFC50126960FB6F894DEBF0FBE62
:10332000CDBFDF91CF911F910F91FF90DF90CF9094
:10333000BF90AF909F908F907F906F900C940119E9
:10334000F39483E0F8129ECF95CF0F931F93CF9302
:10335000DF93EC0180914503823040F480914F036C
:10336000823020F480914E03823060F010E000E063
:103370002AE230E04BE450E064E070E089EC90E059
:103380000E94110D80915C03843509F06CC080911E
:103390005705813009F043C010E000E022E130E041
:1033A0004BE350E063E070E08BE890E00E94110D89
:1033B00022E230E04AE150E066E170E08EE890E021
:1033C0000E94110D8CE890E090938805809387050A
:1033D0008FE090E0909386058093850540EE5FEF47
:1033E00062E875E0259791F48CE192E00E94E61086
:1033F00020EE3FEF4CE950E069E170E082E990E0B7
:10340000DF91CF911F910F910C94791383E292E099
:103410000E94E61020EE3FEF48E650E0EDCF8CE84A
:1034200090E090938805809387058FE090E09093DB
:1034300086058093850540EE5FEF62E875E025978D
:1034400049F48AE292E00E94E61020EE3FEF4FE25C
:1034500055E0D2CF8EE292E00E94E61020EE3FEFE0
:103460004CED54E0C9CF88E790E0909388058093B5
:1034700087058FE090E09093860580938505C630A0
:10348000D10569F440EE5FEF62E875E082E392E017
:103490000E94E61020EE3FEF46E754E0ADCFC23089
:1034A000D10569F440EE5FEF62E875E08BE392E0EE
:1034B0000E94E61020EE3FEF40E154E09DCF82E80D
:1034C00090E09093880580938705C730D10569F413
:1034D00040EE5FEF62E875E084E492E00E94E6105F
:1034E00020EE3FEF4DE653E087CF239769F440EE9F
:1034F0005FEF62E875E08BE492E00E94E61020EE58
:103500003FEF40EC53E078CF87E990E09093880557
:103510008093870540EE5FEF62E875E082E592E018
:10352000DF91CF911F910F910C94E61083E00E94E0
:10353000B507909338038093370320913703309178
:10354000380380914305909144052817390709F401
:1035500056C08FB7F8944091300550913105609175
:103560003205709133058FBF8091330390913403FE
:10357000A0913503B09136030996A11DB11D8417A2
:103580009507A607B707DCF5409333035093340340
:10359000609335037093360380913703909138031D
:1035A0009093440580934305809132038F5F80930D
:1035B000320380913203813011F184E00E94B5071B
:1035C000209137033091380382179307C9F0809117
:1035D0007F059091800501979093800580937F05EA
:1035E0001092320380917F05909180058230984F30
:1035F00034F48FEF9FEF9093800580937F050895BB
:1036000080917F059091800501969093800580932D
:103610007F051092320380917F05909180058F3F46
:1036200097406CF381E090E0E6CF8CBD9DBD08959E
:103630001F93CF93DF93909193059923B1F1C82FF6
:1036400081E591E00E94151B60E080918F050E944A
:10365000DE0728E0C29FC0011124806C0E94A20BEB
:10366000D82F80E00E94A20BC82F80E00E94A20BFE
:10367000182F61E080918F050E94DE0728E0C29F2D
:10368000C0011124129516951770812B2D2F30E053
:10369000322F2227330F330F330F22273870822B1C
:1036A000932BDF91CF911F910895FBCF8F929F9223
:1036B000AF92BF92CF92DF92EF92FF920F931F9340
:1036C000CF93DF9380E00E94181B8C01F0905C0385
:1036D00082E0F81204C083E790E00197F1F781E0FF
:1036E0000E94181BEC0182E0F81204C083E790E00E
:1036F0000197F1F7B801012E000C880B990B0E947D
:10370000CA3720E030E44BE95FE30E947F389B0139
:10371000AC010E94AF364B015C0180924103909254
:103720004203A0924303B092440320E030E048E417
:1037300052E40E9420376B017C01C0925803D09262
:103740005903E0925A03F0925B0310925D0380915B
:103750005705882309F4C7C02091BD043091BE04E9
:103760004091BF045091C004C701B6010E947A384D
:1037700018160CF0B8C060E08FE00E94DE0760E031
:103780008EE00E94DE078BE190E00197F1F790E078
:1037900080E00E94A90B90E080E00E94D10B8BE4B6
:1037A00090E00197F1F781E080935D0380914503FC
:1037B0008130E1F410161106CCF420E030E04AE745
:1037C00054E46091B9047091BA048091BB04909163
:1037D000BC040E94203760933D0370933E038093A6
:1037E0003F039093400382E080934503BE01DD0FC9
:1037F000880B990B0E94CA3720E030E44BE95FE365
:103800000E947F3820E030E040E450E40E947F389E
:10381000A50194010E94AE36609354037093550342
:1038200080935603909357032091B5043091B604CA
:103830004091B7045091B8040E947F384B015C015D
:103840008092390390923A03A0923B03B0923C03DA
:1038500020910A0130910B0140910C0150910D0112
:10386000C701B6010E947F386B017C0120E030E087
:103870004FE653E40E947A3818160CF461C0C092E7
:103880004603D0924703E0924803F092490320E0B8
:1038900030E0A901C501B4010E941B3787FF08C0B1
:1038A0001092390310923A0310923B0310923C039A
:1038B0006091390370913A0380913B0390913C03EE
:1038C0000E9492377093AE046093AD04DF91CF9164
:1038D0001F910F91FF90EF90DF90CF90BF90AF902E
:1038E0009F908F9008956091000170910101072EC3
:1038F000000C880B990B0E94CA379B01AC01C701D1
:10390000B6010E947A3818160CF050CF60E08FE0B4
:103910000E94DE0760E08EE00E94DE078BE190E00F
:103920000197F1F790E080E00E94A90B90E080E021
:103930000E94D10B8BE490E00197F1F782E034CF45
:1039400080E090E0AFE6B3E48093460390934703B2
:10395000A0934803B09349039ACFCF93DF9300D04D
:103960001F92CDB7DEB72CE02093B80020E4298366
:103970009C0194E0369527959A95E1F72A838295E4
:10398000807F8B83E0919506F091960684819581E6
:10399000039738F480E00F900F900F90DF91CF9154
:1039A000089581819281208131E03093C205209376
:1039B000E4051092C3051092E505DC01ED91FC9140
:1039C0000280F381E02D43E050E0BE016F5F7F4F46
:1039D00009950397F9F681E00E941E098111DACF5B
:1039E00088E48093B80081E0D6CF60E08EE00E944A
:1039F000DE0760E08FE00E94DE0760E080E10E9469
:103A0000DE0760E081E10E94DE0760E088E00E945E
:103A1000DE0790E080E00E94A90B90E080E00E9429
:103A2000D10B90E080E00E94AD1C83E290E0019712
:103A3000F1F70895CF92DF92EF92FF920F931F93C9
:103A4000CF93DF93EC016B017A0189010E94F51C91
:103A500084E580935C03809181059091820581309B
:103A6000910509F070C08DE480935C0361E0C5307E
:103A7000D1050CF06DC081E1239709F080E10E942F
:103A8000DE0761E08EE00E94DE078BE490E00197A4
:103A9000F1F7C0917505C33020F461E088E00E9421
:103AA000DE07D0924D05C0924C05F0924F05E09292
:103AB0004E051093460500934505C43098F040919B
:103AC0006D0550916E0520916B0530916C05429FFC
:103AD000C001439F900D529F900D11249093490572
:103AE0008093480580915C03843521F18AE08C9DA8
:103AF00090018D9D300D112430934D0520934C0580
:103B00008E9D90018F9D300D112430934F05209391
:103B10004E05809F9001819F300D11243093460502
:103B20002093450561E085E00E94DE078BE490E08C
:103B30000197F1F7DF91CF911F910F91FF90EF90D7
:103B4000DF90CF900895029709F090CF86E48CCF54
:103B500080E1279709F081E10E94DE0761E08FE0B4
:103B600092CF85ED8093BC008091BE059091BF05FA
:103B7000A091C005B091C1050796A11DB11D23E01C
:103B8000B695A795979587952A95D1F72091BC0072
:103B900024FD03C01092BC0508954091BE055091CC
:103BA000BF056091C0057091C105452B462B472B81
:103BB00069F30097A105B10541F02AE22A95F1F7D2
:103BC00000C00197A109B109E1CF8091BD050C9416
:103BD000FD083F924F925F926F927F928F929F92D9
:103BE000AF92BF92CF92DF92EF92FF920F931F930B
:103BF000CF93DF93CDB7DEB760970FB6F894DEBFF3
:103C00000FBECDBF2B013C017A016901188B0F87D4
:103C100010E0812C912CA12C8FE3B82E1E151F04CF
:103C200064F420E030E040E251E4C501B4010E94B8
:103C300020374B015C011F5FF1CFA3019201C50149
:103C4000B40190580E947A383324339410E0181647
:103C50004CF48DE289831A8277FA709477F8709425
:103C6000312C11E0A5019401C301B2010E94AF36CD
:103C70002B013C0120E030E040E05FE40E947A3814
:103C800087FD25C06FE572E0CE0101960E94BD3A26
:103C90004F855889B601CE0101960E94E6106096C4
:103CA0000FB6F894DEBF0FBECDBFDF91CF911F914D
:103CB0000F91FF90EF90DF90CF90BF90AF909F90CB
:103CC0008F907F906F905F904F903F900895C301C9
:103CD000B2010E9499374B015C012AE041E050E0BB
:103CE0004C0F5D1F410F511D0E943D3601E0010F39
:103CF000E1E0F0E0EC0FFD1FE10FF11D808181118B
:103D000047C0130D8EE28083802F90E0E1E0F0E069
:103D1000EC0FFD1FE80FF91F20E320838C0F9D1F80
:103D2000FC011282C501B4010E94C8379B01AC019D
:103D3000C301B2010E94AE36F12C3F2C300EEF14BD
:103D400009F4A6CF212F2F0D29300CF0A1CFF39429
:103D500020E030E040E251E40E947F382B013C013A
:103D60000E9499374B015C0141E050E04C0F5D1F10
:103D7000430D511D2AE00E943D36C501B4010E9449
:103D8000C8379B01AC01C301B2010E94AE36D5CF4A
:103D9000102FACCF0F931F93CF93DF93EC010E94B2
:103DA000A51980915C038D3419F58091450382300B
:103DB000D1F44FEF57E062E875E083E692E00E94AD
:103DC000E61060913D0370913E0380913F03909116
:103DD00040030FEF17E022E835E041E050E00E9499
:103DE000E91D10924503DF91CF911F910F91089526
:103DF0008634C9F780914F038230D1F44FEF57E0FA
:103E000062E875E089E692E00E94E6106091500356
:103E10007091510380915203909153030FEF17E07B
:103E200022E835E041E050E00E94E91D10924F0386
:103E300080914E038230B9F682EC90E09093880531
:103E40008093870585E290E09093860580938505B1
:103E50004FEF57E062E875E080E792E00E94E610DD
:103E6000239739F44FEF57E062E875E08DE20E9446
:103E7000EE0F60914A0370914B0380914C03909137
:103E80004D030FEF17E022E835E041E050E00E94DB
:103E9000E91D10924E03A7CF1F93CF93DF93EC0140
:103EA000162F0E949836181739F0612FCE01DF9136
:103EB000CF911F910C94A036DF91CF911F9108955F
:103EC0001F93CF93DF93EC01162F672F0E944C1F97
:103ED000612FCE010196DF91CF911F910C944C1F61
:103EE0000C9498360F931F93CF938C010E94701FF0
:103EF000C82FC80101960E94701F2C2F30E0322F6E
:103F00002227820F932F911DCF911F910F9108951A
:103F10004AE060E673E00E94323640E653E0FA0180
:103F200001900020E9F7AF014156534060E673E08D
:103F300086EE95E00E947F066AE086EE95E00C949E
:103F40001F078091C1048F5F8093C104E82FF0E0C8
:103F5000EE0FFF1FEE5BFE4F20813181309356053F
:103F6000209355058A3010F01092C1041092540528
:103F70001092620582E494E00C94881F2F923F9285
:103F80004F925F926F927F928F929F92AF92BF9269
:103F9000CF92DF92EF92FF920F931F93CF93DF9315
:103FA000CDB7DEB760970FB6F894DEBF0FBECDBFBA
:103FB0002091750529832230C0F51092B204109229
:103FC000B10480914A0590914B059C838B8390931B
:103FD000B0048093AF04BC01990F880B990B0E9429
:103FE000CA3720E030E04AE754E40E94203760936B
:103FF00050057093510580935205909353058AE0C4
:104000002B813C81829FB001839F700D1124072E6C
:10401000000C880B990B0E94CA376093B904709307
:10402000BA048093BB049093BC048091970690914E
:1040300098060E94151B61E070E080E090E00E940D
:104040006D081092AE041092AD0410925F031092AE
:104050005E0380E090E290939406809393069093A1
:1040600092068093910690E080E00E94A90B90E078
:1040700080E00E94D10B6AE070E080E090E00E9456
:104080006D083981323009F0DCC080915A05909179
:104090005B050E94A90B6EE170E080E090E00E9459
:1040A0006D0880915805909159051816190644F429
:1040B0000E94D10B6CE370E080E090E00E946D08FC
:1040C00060E177E280E090E00E946D0880919906BF
:1040D00090919A060E94151B61E070E080E090E0EC
:1040E0000E946D089981923009F48AC29130C1F51D
:1040F00080E494E00E94881F80910F0190E00E946C
:10410000881F80917405082E000C990B845B9B4FCF
:104110000E94881F81E494E00E94881F80910E0114
:1041200090E00E94881F80917305082E000C990B67
:104130008A5A9B4F0E94881F80910901803509F09F
:1041400030C188E394E00E94881F80915C0390E076
:1041500088519C4F0E94881F8BE294E00E94881F28
:10416000ECE6F3E0FA83E983E2E0DE2EFFEECF2E09
:1041700029813A812C5633407901A090AD04B0904A
:10418000AE048091AC04A216B30608F40DC1E98117
:10419000FA811081813029F5203A310510F1612F23
:1041A00070E090E080E00E94C83720E030E040E21C
:1041B00051E40E947F3820910A0130910B01409117
:1041C0000C0150910D010E9420372B013C0120E091
:1041D00030E040E85FE30E947A38181614F4D09279
:1041E000AC040C2D011B409155055091560510E073
:1041F000B801C7010E941D0FE981FA811192FA836B
:10420000E98380917505813009F0B2CF4AE060E61C
:1042100073E0C8010E943236009769F0FC010190FA
:104220000020E9F73197AF01481B590BBC0186EE1E
:1042300095E00E947F066AE086EE95E00E941F07E7
:1042400097CFA12CD12CC12CB12C81E090E0988B80
:104250008F87912C812CE1E0F0E0F887EF83312CFF
:10426000212CC1010E94D10B64E670E080E090E057
:104270000E946D0890E080E00E94A90B6AE070E067
:1042800080E090E00E946D082114310411F00E943A
:10429000561B10E000E0C8010E94A90B8FE090E0DF
:1042A000043FF1E01F0714F083E090E00197F1F77D
:1042B0000E94561B20915D032B83223009F406CF08
:1042C000E090AD04F090AE04309146033D838091C0
:1042D00047038987909148039B87E0914903ED87C5
:1042E0008E149F04E4F1232F382F492F5E2F6A2D5F
:1042F0007D2D8C2D9B2D0E94AF36A62ED72EC82E3D
:10430000B92E2F8538892F5F3F4F388B2F8730E4A8
:10431000E31631E0F3060CF0D9CE8B81813009F43D
:10432000D5CEEF81F8850E0F1F1F003AFFE01F0763
:104330000CF4B1CF80915705811106C02F813885CB
:104340002F5F3F4F38872F8330E7231A3EEF330A22
:1043500080EA28168FE0380609F083CFB7CEEF85C4
:10436000F889BF01FF0F880B990B0E94CA379B0188
:10437000AC016A2D7D2D8C2D9B2D0E9420370E9433
:10438000923760935E0370935F03F401E459FC4F2E
:104390006083AD80D984CB84BD84470121E030E0C7
:1043A000B4CF86E394E0CFCE823071F4A3019201C2
:1043B00060E070E48CE995E40E9420370E94923717
:1043C0007093B4046093B30481E08093AC042091B3
:1043D000AF043091B0043A83298337FD11C1809135
:1043E0005E0390915F036FEE70E01B01281A390A9B
:1043F000F090750580915D03823009F051C08EE127
:1044000090E0909388058093870588E290E09093F0
:1044100086058093850540E058EF62E875E085E702
:1044200092E00E94E61040E058EF62E875E080916B
:104430000001909101010E948A1040E058EF62E86B
:1044400075E08BE892E00E94E61031E0F3120AC0BA
:104450008DE294E00E94881F8091000190910101FB
:104460000E94881F60EA7FE080E090E060960FB6CF
:10447000F894DEBF0FBECDBFDF91CF911F910F919A
:10448000FF90EF90DF90CF90BF90AF909F908F9074
:104490007F906F905F904F903F902F900C946D089D
:1044A00083E2A81681E0B80620F072E2A72EBB24B2
:1044B000B3949BEE29163104C8F010E000E028E028
:1044C00030E047E150E06EED70E081E291E00E9463
:1044D000110D28E030E047E050E06EED70E089E338
:1044E00091E00E94110D6AEE262E312CE1E0FE12C1
:1044F0000DC080915C03843509F09BC08AE294E092
:104500000E94881F89819A810E94881F8091B3042C
:104510009091B4041816190654F487E394E00E94AD
:10452000881F8091B3049091B4040E94881F910168
:10453000255031093C872B87B0928805A0928705CA
:1045400030938605209385050091550510915605F9
:1045500080915C03843509F000C180915705811179
:104560006BC0A80167E971E089819A810E948A1075
:10457000A80167E971E082E992E00E94E6102091CB
:10458000500530915105409152055091530560916D
:1045900058037091590380915A0390915B030E94D4
:1045A00020370E949237CB017093B2046093B1041C
:1045B000181619069CF436E1A31AB108B0928805C2
:1045C000A0928705E4E02E1A3108309286052092E9
:1045D0008505A80167E971E00E948A108091750540
:1045E000813051F480E394E00E94881F8091B104EF
:1045F0009091B2040E94881F1092B2041092B104EC
:1046000060960FB6F894DEBF0FBECDBFDF91CF919D
:104610001F910F91FF90EF90DF90CF90BF90AF90E0
:104620009F908F907F906F905F904F903F902F90D2
:1046300008958FE294E064CF6091BD047091BE0450
:104640008091BF049091C0040E9492376B01F5E005
:10465000AF0EB11CB0928805A0928705C1010296E9
:104660009093860580938505A80167E971E0C601EE
:104670000E948A10A80167E971E087E892E00E9431
:10468000E61020E030E04AE754E460915403709172
:10469000550380915603909157030E942037B092A2
:1046A0008805A09287052DE0220E311C30928605E8
:1046B0002092850527E931E041E050E00E94E91DA4
:1046C000409155055091560567E971E086E992E001
:1046D0000E94E61090E080E00E94A90B90E080E04C
:1046E0000E94D10B64E170E080E090E00E946D08D0
:1046F00080917505813009F083CF8CE294E00E94AF
:10470000881FC6010E94881F8DE394E00E94881FC5
:104710006091540370915503809156039091570313
:104720000E949237CB0160960FB6F894DEBF0FBEA1
:10473000CDBFDF91CF911F910F91FF90EF90DF9050
:10474000CF90BF90AF909F908F907F906F905F9031
:104750004F903F902F900C94881F20E030E04AE764
:1047600054E46091B9047091BA048091BB049091B3
:10477000BC040E94203727E931E042E050E00E946B
:10478000E91D8091550590915605988B8F87AC0156
:1047900067E971E086E992E00E94E6108091B30437
:1047A0009091B404181619060CF026C1F101369741
:1047B000FE87ED87950123523109309388052093B8
:1047C0008705F0938605E09385054F85588967E94D
:1047D00071E00E948A1095012A50310938872F8391
:1047E000C1010A979A8789870E94FD0A36E3432E02
:1047F000512C612C712C45EEC42EDD24DA94ED2C65
:10480000FD2C53E0852E912C1A8219824F855889F0
:1048100009851A85080D191DB801E981FA812F81D2
:104820003885E20FF31FFE83ED83CF010E94CA1289
:104830004F855889B8018F819885E981FA818E1B4F
:104840009F0B9C838B830E94CA124F8558890985D0
:104850001A8508191909B8018B819C810E94CA1216
:104860004F855889B8018D819E810E94CA12F7FC3C
:104870000FC0A1E0B0E0A819B90924E230E00E941D
:104880005639C60ED71EE81EF91EF1E08F1A9108A0
:10489000C40CD51CE61CF71C29813A812F5F3F4FC1
:1048A0003A83298334E2430E511C611C711C8981B7
:1048B0009A81881699060CF0A9CF86E3482E512CD0
:1048C000612C712C95EEC92EDD24DA94ED2CFD2C93
:1048D00023E0822E912C1A8219824F8558890985EE
:1048E0001A85E981FA810E0F1F1FB8012F813885C3
:1048F000280D391D3C832B83C9010E94CA124F85A4
:104900005889B8018F819885881999099E838D836C
:104910000E94CA124F85588909851A85E981FA8152
:104920000E1B1F0BB8018D819E810E94CA124F85FC
:104930005889B8018B819C810E94CA12F7FC0FC074
:10494000A1E0B0E0A819B90924E230E00E9456398C
:10495000C60ED71EE81EF91EF1E08F1A9108C40C8E
:10496000D51CE61CF71C29813A812F5F3F4F3A8303
:10497000298334E2430E511C611C711C89819A8188
:10498000881699060CF0A9CFB1016750710930E083
:1049900020E041E050E08F8198850E94F2112F8540
:1049A000388941E050E06D857E85C5010B970E94F6
:1049B00007128501095011092F85388941E050E01F
:1049C0006D857E85C8010E9407122F85388942E0D7
:1049D00050E06B857C85C5010C970E94F2112F85F4
:1049E000388942E050E06B857C85C8010E94F21155
:1049F0001092B4041092B30480915C03863409F0E1
:104A0000FFCD20E030E0A901609150057091510583
:104A100080915205909153050E941B37811113C05C
:104A20008091580390915903A0915A03B0915B0370
:104A30008093500390935103A0935203B093530378
:104A400082E080934F0380914E03813009F0D8CDEE
:104A500020E030E040E85EE3609158037091590334
:104A600080915A0390915B030E941B3787FFC8CD4A
:104A700060914A0570914B05072E000C880B990B2D
:104A80000E94CA372AE037ED43E25BE30E947F3899
:104A900060934A0370934B0380934C0390934D03B0
:104AA00082E080934E03ACCD1F920F920FB60F920F
:104AB00011242F933F934F935F936F937F938F9323
:104AC0009F93AF93BF93EF93FF9386EE95E00E9481
:104AD000FD06FF91EF91BF91AF919F918F917F91D3
:104AE0006F915F914F913F912F910F900FBE0F905B
:104AF0001F9018951F920F920FB60F9211242F93AB
:104B00008F939F93EF93FF93E091F605F091F70554
:104B10008081E091FC05F091FD0582FD1BC0908134
:104B20008091FF058F5F8F7320910006821741F0FF
:104B3000E091FF05F0E0EA51FA4F958F8093FF0571
:104B4000FF91EF919F918F912F910F900FBE0F903A
:104B50001F9018958081F4CF1F920F920FB60F927D
:104B600011242F933F938F939F93AF93BF93809183
:104B7000300590913105A0913205B0913305309107
:104B80002F0523E0230F2D3758F50196A11DB11DE8
:104B900020932F058093300590933105A093320523
:104BA000B09333058091340590913505A091360579
:104BB000B09137050196A11DB11D809334059093E6
:104BC0003505A0933605B0933705BF91AF919F91FE
:104BD0008F913F912F910F900FBE0F901F901895BE
:104BE00026E8230F0296A11DB11DD2CF1F920F926E
:104BF0000FB60F9211242F933F934F935F936F93B0
:104C00007F938F939F93AF93BF93EF93FF93E09125
:104C10000401F09105010995FF91EF91BF91AF91CA
:104C20009F918F917F916F915F914F913F912F91C4
:104C30000F900FBE0F901F9018951F920F920FB6F6
:104C40000F9211242F933F934F935F936F937F9312
:104C50008F939F93AF93BF93EF93FF93E0910201E4
:104C6000F09103010995FF91EF91BF91AF919F9151
:104C70008F917F916F915F914F913F912F910F9005
:104C80000FBE0F901F9018951F920F920FB60F92A4
:104C900011242F933F934F935F936F937F938F9341
:104CA0009F93AF93BF93EF93FF938091B900887F59
:104CB000803609F44AC0F0F5883209F4A7C018F527
:104CC000803109F49BC0B8F4882309F4F9C0883016
:104CD00009F494C0FF91EF91BF91AF919F918F9193
:104CE0007F916F915F914F913F912F910F900FBEE8
:104CF0000F901F901895883109F488C0803251F7C1
:104D00008093BA0514C0803409F49DC040F4803308
:104D1000B9F38833F9F68093BA0585ECB0C08035D5
:104D200009F485C0883509F496C0883499F60E9444
:104D3000B11DD0CF883909F48CC038F5883729F0F7
:104D400050F4883611F0803729F683E08093BC0553
:104D500010922E0557C0883809F47BC0803919F0AD
:104D6000803809F0B7CF80912E05803208F071C0ED
:104D7000E0912E0581E08E0F80932E058091BB007F
:104D8000F0E0E25FFA4F80833DC0803B39F0E0F411
:104D9000803A09F479C0883A09F09CCF84E0809386
:104DA000BC0510920D0510920C05E0918B05F09159
:104DB0008C05099580910C0581110FC081E08093CD
:104DC0000C051092EC0409C0803C09F4A6CF883C85
:104DD00009F4A3CF883B09F07DCFE0910D0581E078
:104DE0008E0F80930D05F0E0E451FB4F808180939E
:104DF000BB0090910D0580910C0529C0809197050D
:104E00008093BB0085EC8093BC0064CF9091B90582
:104E10008091B805981758F5E091B90581E08E0F9B
:104E20008093B905F0E0E856FA4F8081E9CFE09130
:104E3000B90581E08E0F8093B9058091BB00F0E049
:104E4000E856FA4F80839091B9058091B80598177C
:104E5000C8F285E8D8CFE091B90581E08E0F809344
:104E6000B9058091BB00F0E0E856FA4F808380914D
:104E7000BB0581115CCF81E08093960584EA809325
:104E8000BC001092BC0526CF85EC8093BC0010922C
:104E9000BC0580912E05803230F4E0912E05F0E0C3
:104EA000E25FFA4F108260912E0570E0E091890573
:104EB000F0918A058EE095E0099510922E050ACFB3
:104EC0001092BA0534CFE6EEF5E01382128288EE36
:104ED00093E0A0E0B0E084839583A683B78320EEBF
:104EE00031E03183208325EC30E03587248724ECC2
:104EF00030E03787268720EC30E0318B208B21ECA7
:104F000030E0338B228B22EC30E0358B248B26EC87
:104F100030E0378B268B118E128E138E148EE3E8C1
:104F2000F6E01382128284839583A683B78382EF8F
:104F300091E091838083E9E9F6E080E5808381E078
:104F40008183E7E9F6E091E59083818310929606EC
:104F50001092950687E090E09093900680938F06DC
:104F60000895CF93DF93CDB7DEB760970FB6F8946F
:104F7000DEBF0FBECDBF789484B5826084BD84B59A
:104F8000816084BD85B5826085BD85B5816085BD44
:104F900080916E00816080936E00109281008091FC
:104FA0008100826080938100809181008160809384
:104FB0008100809180008160809380008091B100A9
:104FC00084608093B1008091B00081608093B000D4
:104FD00080917A00846080937A0080917A00826068
:104FE00080937A0080917A00816080937A0080912A
:104FF0007A00806880937A001092C100E091F605F3
:10500000F091F70582E08083E091F205F091F305DD
:105010001082E091F405F091F5058FEC80831092F9
:10502000FE05E091FA05F091FB0586E08083E091B2
:10503000F805F091F905808180618083E091F805A1
:10504000F091F905808188608083E091F805F09106
:10505000F905808180688083E091F805F091F90579
:1050600080818F7D80836CE271E080E090E00E941F
:105070006D0862E082E00E940C088BE796E0909356
:10508000030180930201809169008C7F826080938C
:105090006900E89A62E083E00E940C0862E084E024
:1050A0000E940C0883E00E94B5079093440580930A
:1050B000430586E99AE1909305018093040180916C
:1050C0006900837F846080936900E99A61E087E0EA
:1050D0000E940C0861E085E00E940C0860E085E019
:1050E0000E94DE0761E088E00E940C0860E088E032
:1050F0000E94DE0761E08EE00E940C0860E08EE016
:105100000E94DE0761E08FE00E940C0860E08FE003
:105110000E94DE0761E080E10E940C0860E080E10F
:105120000E94DE0761E081E10E940C0860E081E1FD
:105130000E94DE0781E08093420589E080930801A8
:105140008AE0809307018FEF809306010E94BC0ADA
:1051500060E08FEF0E94DE0761E08FEF0E940C0895
:1051600061E08AE00E94DE0761E08AE00E940C08AC
:1051700061E089E00E94DE0761E089E00E940C089E
:1051800080E491E0909322018093210180EF90E0F0
:105190009093240180932301109288051092870533
:1051A00010928605109285058FEF9FEF9093400532
:1051B00080933F0590933E0580933D0590933C0579
:1051C00080933B0590933A05809339058CB58C7F8D
:1051D0008CBD8DB581608DBD8CB58F7D8CBD8CB542
:1051E000837F8CBD8CB58093380510910601112307
:1051F00011F40C94293661E0812F0E94DE0765E0EE
:1052000070E080E090E00E946D0860E0812F0E94D5
:10521000DE0764E170E080E090E00E946D0861E0EC
:10522000812F0E94DE0766E970E080E090E00E9436
:105230006D08EAE2F1E0D4900BE211E0DA942FEF8E
:10524000D21689F1F80184910E94180C5801F2E0FD
:10525000AF0EB11CF8013196C4900C2D0F7775017B
:10526000102F115040F0F70184910E94F90BFFEFCD
:10527000EF1AFF0AF6CF0A0D1B2D111DC7FEDECF58
:1052800078012FEFE21AF20AF801649170E090E0E1
:1052900080E06F3F21F464EF71E080E090E00E94D5
:1052A0006D088701CBCF86E30E94180C88EE0E9420
:1052B000F90B0E94550D8091990690919A060E94D3
:1052C000151B0E94E608809195069091960600971E
:1052D00011F00E94343A86E090E00E9498398C01E7
:1052E00080E6D8018C9383E896E012969C938E9387
:1052F000119713961C92139780E290E015969C9359
:105300008E93149710939606009395060E94E608D4
:10531000FF24F394F801F382C8010E940E0AF09270
:10532000930586E080938F0561E00E940C0861E0A0
:1053300080918F050E94DE0781E495E090939505AA
:10534000809394050E94BC0A90E080E00E94701F48
:1053500090E0909382058093810580913101909136
:105360003201A0913301B09134018D879E87AF87C0
:10537000B88BB09083050E94F51CC0908305D09037
:105380008405D0928205C092810580911E01909182
:105390001F019093800580937F050E94550D41E089
:1053A000C114D10409F040E0FCEDEF2EF4E0FF2E33
:1053B0000FE215E020EF3FEF69E972E090E080E056
:1053C0000E94541441E091E0C916D10409F040E074
:1053D000E0E1EE2EE4E0FE2E06E714E02FEF37E8E2
:1053E00061EA72E080E590E00E94541441E0A2E09E
:1053F000CA16D10409F040E07DE6E72E73E0F72EEF
:1054000000EC13E02FE13CEF68EA72E080EA90E004
:105410000E94541410927E0580917E05813011F017
:105420000C94CD35B090810580918205B0928305B2
:105430008093840580917F059091800590931F0152
:1054400080931E0182E590E0909388058093870504
:1054500084E390E090938605809385054FEF5FEF9E
:1054600062E875E08FEA92E00E94E61080911C01EC
:1054700090911D019093800580937F0510927E0589
:105480001DE362E370E080E090E00E946D082091EF
:105490007F053091800580911C0190911D01281796
:1054A000390709F4D2C080917F05909180058091E1
:1054B0007F059091800590931D0180931C018D853F
:1054C0009E85AF85B88989839A83AB83BC8310E0BE
:1054D00000E0D12CC12C41E4E42EF12C51E1A52EA9
:1054E00064E3662E712C68E270E080E090E00E9438
:1054F0006D080F5F1F4F063911050CF00EC4809127
:105500007E05813009F041C09CE3E916F10409F001
:1055100000C4AC9CC001AD9C900D112410E000E0D3
:1055200022E130E043E150E068E270E08A579F4FAB
:105530000E94110DA1E0CA1AD108AC9C4001AD9C9B
:10554000900C112400E114E822E130E043E150E046
:1055500068E270E0C4018A579F4F0E94110D27E84E
:10556000820E911C90928805809287057092860524
:10557000609285054FEF5FEF62E875E08FE30E9470
:10558000EE0F10927E0510E000E020917F05309133
:10559000800580911C0190911D012817390709F49D
:1055A000A2CF20917F053091800580911C019091C0
:1055B0001D01281739070CF0F1C331E0E31AF10897
:1055C000E2E090E2E916F1040CF402C4C70181970D
:1055D0000A9708F0E8C3A1E0B0E0AC0FBD1FAE0F22
:1055E000B11DFD01E0800E2C000CFF08AC9C4001B9
:1055F000AD9C900C112400E114E822E130E043E17D
:1056000050E068E270E0C4018A579F4F0E94110D7C
:1056100087E8880E911C9092880580928705709289
:105620008605609285054FEF5FEF62E875E08E2D8D
:105630000E94EE0F80917F059091800590931D014F
:1056400080931C0110E000E04ECF80917E058130F8
:1056500019F0115009F015CF10E000E021E130E021
:105660004EE250E068E270E081E590E00E94110DAA
:1056700010927E05E0908105F090820584E18E9D78
:1056800080018F9D100D1124C80101960E94701F8A
:1056900080937505C80102960E94701FD82E8093D2
:1056A0007405C80103960E94701FF82E809373053D
:1056B000C80104960E94721F90937D0580937C051B
:1056C000C80106960E94721F90937B0580937A050D
:1056D000C80108960E94721F9093790580937805FF
:1056E000C8010A960E94721F9093720580937105FB
:1056F000C8010C960E94721F90931B0180931A019F
:10570000C8010E960E94721F9093700580936F05DA
:10571000C80140960E94721F90936E0580936D059C
:10572000C80142960E94721F90936C0580936B058E
:10573000ED2DDD0CFF0BE754FE4F808180930F01B0
:10574000EF2DFF0CFF0BEE54FE4F808180930E0176
:10575000EB2DEE0FFF0BE054FE4FC080D180EE2DFD
:10576000EE0FFF0BEE52FE4FE080F18010E000E004
:1057700023E130E043E550E06DE070E08AEA90E03C
:105780000E94110D8CEA90E0909388058093870524
:1057900089E190E0909386058093850540EE5FEF68
:1057A00062E875E0C7010E94E6108CE390E00E9479
:1057B000701FF82E809377051816ECF487E890E0B8
:1057C000909388058093870584E390E09093860505
:1057D000809385050DE310E0C8010E94701F4FEF14
:1057E0005FEF62E875E00E94EE0F0F5F1F4F83ECE2
:1057F000800F8F158CF310E000E024E130E043E7E8
:1058000050E06DE370E083E590E00E94110D05E546
:1058100010E010938805009387058BE490E0909347
:105820008605809385054FEF5FEF62E875E0C6015E
:105830000E94E61090E080E00E94D10B61E088E0D9
:105840000E94DE0783E00E94181BBC01990F880BA1
:10585000990B0E94CA376B017C0160E088E00E94CE
:10586000DE072DEA3DE342E25BE3C701B6010E9499
:105870007F384B015C018091990690919A060E94B5
:10588000151B109388050093870589E090E090939D
:1058900086058093850540EE57E067E971E085EB6A
:1058A00092E00E94E61010E000E02BE030E046E1DC
:1058B00050E06CE070E086E590E00E94110DA8E5F4
:1058C000B0E0B0938805A093870593E1E92EF12C11
:1058D000F0928605E09285050FEF17E827E931E0A1
:1058E00042E050E0C501B4010E94E91D2DEC3CEC02
:1058F0004CE450E4C501B4010E941B3787FD27C06A
:105900002DEC3CEC4CE450E4C501B4010E947A3823
:1059100087FF1DC00E94550DE8E5F0E0F093880573
:10592000E0938705F0928605E09285050FEF17E07A
:1059300027E931E042E050E0C501B4010E94E91DD1
:10594000109276058FEF0E944B1880937E052FEF03
:105950003FEF40E058EF60E58DE790E00E94831252
:105960002FEF3FEF4FE150E06EE489E091E00E94BD
:10597000831228E530E0309388052093870500E7FF
:10598000C02ED12CD0928605C09285054FEF5FEFD7
:1059900062E875E08FEB92E00E94E61088E590E007
:1059A000909388058093870582EAE82EF12CF09287
:1059B0008605E09285054FEF5FEF62E875E085ECC4
:1059C00092E00E94E610A8E5B0E0B0938805A093AD
:1059D000870584ED90E090938605809385054FEFD1
:1059E0005FEF62E875E08BEC92E00E94E61003EB5B
:1059F00010E01093880500938705D0928605C09229
:105A000085054FEF57E862E875E081ED92E00E946E
:105A1000E61086EE90E0909388058093870542E338
:105A20005BEF62E875E088ED92E00E94E61010936B
:105A3000880500938705F0928605E09285054FEF73
:105A40005FEF62E875E08EED92E00E94E610109341
:105A500088050093870585ED90E0909386058093F7
:105A600085054FEF5FEF62E875E08CEE92E00E94F3
:105A7000E61010926805109267058FEF9FEF9093E4
:105A800019018093180110917505112371F09093FD
:105A90006805809367058FE190E0123010F080E098
:105AA00098EF909319018093180160E083E00E94C1
:105AB0001015609116017091170180911401909159
:105AC0001501C12ED12C7B01BEE0EB0EF11C8C0127
:105AD0000A5F1F4F209112013091130124503109A8
